{"abi":[{"inputs":[{"internalType":"uint256","name":"_initialSpace","type":"uint256"},{"internalType":"uint256","name":"_initialPrice","type":"uint256"},{"internalType":"address","name":"creator","type":"address"}],"stateMutability":"nonpayable","type":"constructor"},{"anonymous":false,"inputs":[{"indexed":false,"internalType":"uint256","name":"rentalID","type":"uint256"},{"indexed":false,"internalType":"address","name":"renter","type":"address"},{"indexed":false,"internalType":"uint256","name":"space","type":"uint256"},{"indexed":false,"internalType":"uint256","name":"start","type":"uint256"},{"indexed":false,"internalType":"uint256","name":"end","type":"uint256"}],"name":"RentalClosed","type":"event"},{"anonymous":false,"inputs":[{"indexed":false,"internalType":"uint256","name":"rentalID","type":"uint256"},{"indexed":false,"internalType":"address","name":"renter","type":"address"},{"indexed":false,"internalType":"uint256","name":"space","type":"uint256"},{"indexed":false,"internalType":"uint256","name":"start","type":"uint256"},{"indexed":false,"internalType":"uint256","name":"end","type":"uint256"}],"name":"RentalCreated","type":"event"},{"inputs":[],"name":"availableDiskSpace","outputs":[{"internalType":"uint256","name":"","type":"uint256"}],"stateMutability":"view","type":"function"},{"inputs":[{"internalType":"uint256","name":"_rentalID","type":"uint256"}],"name":"closeRental","outputs":[],"stateMutability":"nonpayable","type":"function"},{"inputs":[],"name":"getRentalCount","outputs":[{"internalType":"uint256","name":"","type":"uint256"}],"stateMutability":"view","type":"function"},{"inputs":[],"name":"owner","outputs":[{"internalType":"address","name":"","type":"address"}],"stateMutability":"view","type":"function"},{"inputs":[{"internalType":"uint256","name":"_space","type":"uint256"},{"internalType":"uint256","name":"_duration","type":"uint256"}],"name":"rentSpace","outputs":[],"stateMutability":"payable","type":"function"},{"inputs":[],"name":"rentalPrice","outputs":[{"internalType":"uint256","name":"","type":"uint256"}],"stateMutability":"view","type":"function"},{"inputs":[{"internalType":"uint256","name":"","type":"uint256"}],"name":"rentals","outputs":[{"internalType":"address","name":"renter","type":"address"},{"internalType":"uint256","name":"space","type":"uint256"},{"internalType":"uint256","name":"start","type":"uint256"},{"internalType":"uint256","name":"end","type":"uint256"},{"internalType":"bool","name":"active","type":"bool"}],"stateMutability":"view","type":"function"},{"inputs":[],"name":"totalDiskSpace","outputs":[{"internalType":"uint256","name":"","type":"uint256"}],"stateMutability":"view","type":"function"}],"devdoc":{"kind":"dev","methods":{},"version":1},"evm":{"assembly":"    /* \"DiskSpaceRentalSystem.sol\":541:2800  contract DiskSpaceRentalSystem {... */\n  mstore(0x40, 0x80)\n    /* \"DiskSpaceRentalSystem.sol\":1280:1513  constructor(uint256 _initialSpace, uint256 _initialPrice, address creator) {... */\n  callvalue\n  dup1\n  iszero\n  tag_1\n  jumpi\n  0x00\n  dup1\n  revert\ntag_1:\n  pop\n  mload(0x40)\n  sub(codesize, bytecodeSize)\n  dup1\n  bytecodeSize\n  dup4\n  codecopy\n  dup2\n  dup2\n  add\n  0x40\n  mstore\n  dup2\n  add\n  swap1\n  tag_2\n  swap2\n  swap1\n  tag_3\n  jump\t// in\ntag_2:\n    /* \"DiskSpaceRentalSystem.sol\":1374:1381  creator */\n  dup1\n    /* \"DiskSpaceRentalSystem.sol\":1366:1371  owner */\n  0x00\n  dup1\n    /* \"DiskSpaceRentalSystem.sol\":1366:1381  owner = creator */\n  0x0100\n  exp\n  dup2\n  sload\n  dup2\n  0xffffffffffffffffffffffffffffffffffffffff\n  mul\n  not\n  and\n  swap1\n  dup4\n  0xffffffffffffffffffffffffffffffffffffffff\n  and\n  mul\n  or\n  swap1\n  sstore\n  pop\n    /* \"DiskSpaceRentalSystem.sol\":1409:1422  _initialSpace */\n  dup3\n    /* \"DiskSpaceRentalSystem.sol\":1392:1406  totalDiskSpace */\n  0x02\n    /* \"DiskSpaceRentalSystem.sol\":1392:1422  totalDiskSpace = _initialSpace */\n  dup2\n  swap1\n  sstore\n  pop\n    /* \"DiskSpaceRentalSystem.sol\":1454:1467  _initialSpace */\n  dup3\n    /* \"DiskSpaceRentalSystem.sol\":1433:1451  availableDiskSpace */\n  0x03\n    /* \"DiskSpaceRentalSystem.sol\":1433:1467  availableDiskSpace = _initialSpace */\n  dup2\n  swap1\n  sstore\n  pop\n    /* \"DiskSpaceRentalSystem.sol\":1492:1505  _initialPrice */\n  dup2\n    /* \"DiskSpaceRentalSystem.sol\":1478:1489  rentalPrice */\n  0x01\n    /* \"DiskSpaceRentalSystem.sol\":1478:1505  rentalPrice = _initialPrice */\n  dup2\n  swap1\n  sstore\n  pop\n    /* \"DiskSpaceRentalSystem.sol\":1280:1513  constructor(uint256 _initialSpace, uint256 _initialPrice, address creator) {... */\n  pop\n  pop\n  pop\n    /* \"DiskSpaceRentalSystem.sol\":541:2800  contract DiskSpaceRentalSystem {... */\n  jump(tag_6)\n    /* \"#utility.yul\":88:205   */\ntag_8:\n    /* \"#utility.yul\":197:198   */\n  0x00\n    /* \"#utility.yul\":194:195   */\n  dup1\n    /* \"#utility.yul\":187:199   */\n  revert\n    /* \"#utility.yul\":334:411   */\ntag_10:\n    /* \"#utility.yul\":371:378   */\n  0x00\n    /* \"#utility.yul\":400:405   */\n  dup2\n    /* \"#utility.yul\":389:405   */\n  swap1\n  pop\n    /* \"#utility.yul\":334:411   */\n  swap2\n  swap1\n  pop\n  jump\t// out\n    /* \"#utility.yul\":417:539   */\ntag_11:\n    /* \"#utility.yul\":490:514   */\n  tag_23\n    /* \"#utility.yul\":508:513   */\n  dup2\n    /* \"#utility.yul\":490:514   */\n  tag_10\n  jump\t// in\ntag_23:\n    /* \"#utility.yul\":483:488   */\n  dup2\n    /* \"#utility.yul\":480:515   */\n  eq\n    /* \"#utility.yul\":470:533   */\n  tag_24\n  jumpi\n    /* \"#utility.yul\":529:530   */\n  0x00\n    /* \"#utility.yul\":526:527   */\n  dup1\n    /* \"#utility.yul\":519:531   */\n  revert\n    /* \"#utility.yul\":470:533   */\ntag_24:\n    /* \"#utility.yul\":417:539   */\n  pop\n  jump\t// out\n    /* \"#utility.yul\":545:688   */\ntag_12:\n    /* \"#utility.yul\":602:607   */\n  0x00\n    /* \"#utility.yul\":633:639   */\n  dup2\n    /* \"#utility.yul\":627:640   */\n  mload\n    /* \"#utility.yul\":618:640   */\n  swap1\n  pop\n    /* \"#utility.yul\":649:682   */\n  tag_26\n    /* \"#utility.yul\":676:681   */\n  dup2\n    /* \"#utility.yul\":649:682   */\n  tag_11\n  jump\t// in\ntag_26:\n    /* \"#utility.yul\":545:688   */\n  swap3\n  swap2\n  pop\n  pop\n  jump\t// out\n    /* \"#utility.yul\":694:820   */\ntag_13:\n    /* \"#utility.yul\":731:738   */\n  0x00\n    /* \"#utility.yul\":771:813   */\n  0xffffffffffffffffffffffffffffffffffffffff\n    /* \"#utility.yul\":764:769   */\n  dup3\n    /* \"#utility.yul\":760:814   */\n  and\n    /* \"#utility.yul\":749:814   */\n  swap1\n  pop\n    /* \"#utility.yul\":694:820   */\n  swap2\n  swap1\n  pop\n  jump\t// out\n    /* \"#utility.yul\":826:922   */\ntag_14:\n    /* \"#utility.yul\":863:870   */\n  0x00\n    /* \"#utility.yul\":892:916   */\n  tag_29\n    /* \"#utility.yul\":910:915   */\n  dup3\n    /* \"#utility.yul\":892:916   */\n  tag_13\n  jump\t// in\ntag_29:\n    /* \"#utility.yul\":881:916   */\n  swap1\n  pop\n    /* \"#utility.yul\":826:922   */\n  swap2\n  swap1\n  pop\n  jump\t// out\n    /* \"#utility.yul\":928:1050   */\ntag_15:\n    /* \"#utility.yul\":1001:1025   */\n  tag_31\n    /* \"#utility.yul\":1019:1024   */\n  dup2\n    /* \"#utility.yul\":1001:1025   */\n  tag_14\n  jump\t// in\ntag_31:\n    /* \"#utility.yul\":994:999   */\n  dup2\n    /* \"#utility.yul\":991:1026   */\n  eq\n    /* \"#utility.yul\":981:1044   */\n  tag_32\n  jumpi\n    /* \"#utility.yul\":1040:1041   */\n  0x00\n    /* \"#utility.yul\":1037:1038   */\n  dup1\n    /* \"#utility.yul\":1030:1042   */\n  revert\n    /* \"#utility.yul\":981:1044   */\ntag_32:\n    /* \"#utility.yul\":928:1050   */\n  pop\n  jump\t// out\n    /* \"#utility.yul\":1056:1199   */\ntag_16:\n    /* \"#utility.yul\":1113:1118   */\n  0x00\n    /* \"#utility.yul\":1144:1150   */\n  dup2\n    /* \"#utility.yul\":1138:1151   */\n  mload\n    /* \"#utility.yul\":1129:1151   */\n  swap1\n  pop\n    /* \"#utility.yul\":1160:1193   */\n  tag_34\n    /* \"#utility.yul\":1187:1192   */\n  dup2\n    /* \"#utility.yul\":1160:1193   */\n  tag_15\n  jump\t// in\ntag_34:\n    /* \"#utility.yul\":1056:1199   */\n  swap3\n  swap2\n  pop\n  pop\n  jump\t// out\n    /* \"#utility.yul\":1205:1868   */\ntag_3:\n    /* \"#utility.yul\":1293:1299   */\n  0x00\n    /* \"#utility.yul\":1301:1307   */\n  dup1\n    /* \"#utility.yul\":1309:1315   */\n  0x00\n    /* \"#utility.yul\":1358:1360   */\n  0x60\n    /* \"#utility.yul\":1346:1355   */\n  dup5\n    /* \"#utility.yul\":1337:1344   */\n  dup7\n    /* \"#utility.yul\":1333:1356   */\n  sub\n    /* \"#utility.yul\":1329:1361   */\n  slt\n    /* \"#utility.yul\":1326:1445   */\n  iszero\n  tag_36\n  jumpi\n    /* \"#utility.yul\":1364:1443   */\n  tag_37\n  tag_8\n  jump\t// in\ntag_37:\n    /* \"#utility.yul\":1326:1445   */\ntag_36:\n    /* \"#utility.yul\":1484:1485   */\n  0x00\n    /* \"#utility.yul\":1509:1573   */\n  tag_38\n    /* \"#utility.yul\":1565:1572   */\n  dup7\n    /* \"#utility.yul\":1556:1562   */\n  dup3\n    /* \"#utility.yul\":1545:1554   */\n  dup8\n    /* \"#utility.yul\":1541:1563   */\n  add\n    /* \"#utility.yul\":1509:1573   */\n  tag_12\n  jump\t// in\ntag_38:\n    /* \"#utility.yul\":1499:1573   */\n  swap4\n  pop\n    /* \"#utility.yul\":1455:1583   */\n  pop\n    /* \"#utility.yul\":1622:1624   */\n  0x20\n    /* \"#utility.yul\":1648:1712   */\n  tag_39\n    /* \"#utility.yul\":1704:1711   */\n  dup7\n    /* \"#utility.yul\":1695:1701   */\n  dup3\n    /* \"#utility.yul\":1684:1693   */\n  dup8\n    /* \"#utility.yul\":1680:1702   */\n  add\n    /* \"#utility.yul\":1648:1712   */\n  tag_12\n  jump\t// in\ntag_39:\n    /* \"#utility.yul\":1638:1712   */\n  swap3\n  pop\n    /* \"#utility.yul\":1593:1722   */\n  pop\n    /* \"#utility.yul\":1761:1763   */\n  0x40\n    /* \"#utility.yul\":1787:1851   */\n  tag_40\n    /* \"#utility.yul\":1843:1850   */\n  dup7\n    /* \"#utility.yul\":1834:1840   */\n  dup3\n    /* \"#utility.yul\":1823:1832   */\n  dup8\n    /* \"#utility.yul\":1819:1841   */\n  add\n    /* \"#utility.yul\":1787:1851   */\n  tag_16\n  jump\t// in\ntag_40:\n    /* \"#utility.yul\":1777:1851   */\n  swap2\n  pop\n    /* \"#utility.yul\":1732:1861   */\n  pop\n    /* \"#utility.yul\":1205:1868   */\n  swap3\n  pop\n  swap3\n  pop\n  swap3\n  jump\t// out\n    /* \"DiskSpaceRentalSystem.sol\":541:2800  contract DiskSpaceRentalSystem {... */\ntag_6:\n  dataSize(sub_0)\n  dup1\n  dataOffset(sub_0)\n  0x00\n  codecopy\n  0x00\n  return\nstop\n\nsub_0: assembly {\n        /* \"DiskSpaceRentalSystem.sol\":541:2800  contract DiskSpaceRentalSystem {... */\n      mstore(0x40, 0x80)\n      jumpi(tag_1, lt(calldatasize, 0x04))\n      shr(0xe0, calldataload(0x00))\n      dup1\n      0x7b6f86ee\n      gt\n      tag_10\n      jumpi\n      dup1\n      0x7b6f86ee\n      eq\n      tag_6\n      jumpi\n      dup1\n      0x83d255bc\n      eq\n      tag_7\n      jumpi\n      dup1\n      0x8da5cb5b\n      eq\n      tag_8\n      jumpi\n      dup1\n      0xaf94a1d1\n      eq\n      tag_9\n      jumpi\n      jump(tag_1)\n    tag_10:\n      dup1\n      0x0136f66d\n      eq\n      tag_2\n      jumpi\n      dup1\n      0x1c43cd04\n      eq\n      tag_3\n      jumpi\n      dup1\n      0x41f5c650\n      eq\n      tag_4\n      jumpi\n      dup1\n      0x69b42dc2\n      eq\n      tag_5\n      jumpi\n    tag_1:\n      0x00\n      dup1\n      revert\n        /* \"DiskSpaceRentalSystem.sol\":687:716  uint256 public totalDiskSpace */\n    tag_2:\n      callvalue\n      dup1\n      iszero\n      tag_11\n      jumpi\n      0x00\n      dup1\n      revert\n    tag_11:\n      pop\n      tag_12\n      tag_13\n      jump\t// in\n    tag_12:\n      mload(0x40)\n      tag_14\n      swap2\n      swap1\n      tag_15\n      jump\t// in\n    tag_14:\n      mload(0x40)\n      dup1\n      swap2\n      sub\n      swap1\n      return\n        /* \"DiskSpaceRentalSystem.sol\":606:632  uint256 public rentalPrice */\n    tag_3:\n      callvalue\n      dup1\n      iszero\n      tag_16\n      jumpi\n      0x00\n      dup1\n      revert\n    tag_16:\n      pop\n      tag_17\n      tag_18\n      jump\t// in\n    tag_17:\n      mload(0x40)\n      tag_19\n      swap2\n      swap1\n      tag_15\n      jump\t// in\n    tag_19:\n      mload(0x40)\n      dup1\n      swap2\n      sub\n      swap1\n      return\n        /* \"DiskSpaceRentalSystem.sol\":2039:2691  function closeRental(uint256 _rentalID) external onlyOwner {... */\n    tag_4:\n      callvalue\n      dup1\n      iszero\n      tag_20\n      jumpi\n      0x00\n      dup1\n      revert\n    tag_20:\n      pop\n      tag_21\n      0x04\n      dup1\n      calldatasize\n      sub\n      dup2\n      add\n      swap1\n      tag_22\n      swap2\n      swap1\n      tag_23\n      jump\t// in\n    tag_22:\n      tag_24\n      jump\t// in\n    tag_21:\n      stop\n        /* \"DiskSpaceRentalSystem.sol\":723:756  uint256 public availableDiskSpace */\n    tag_5:\n      callvalue\n      dup1\n      iszero\n      tag_25\n      jumpi\n      0x00\n      dup1\n      revert\n    tag_25:\n      pop\n      tag_26\n      tag_27\n      jump\t// in\n    tag_26:\n      mload(0x40)\n      tag_28\n      swap2\n      swap1\n      tag_15\n      jump\t// in\n    tag_28:\n      mload(0x40)\n      dup1\n      swap2\n      sub\n      swap1\n      return\n        /* \"DiskSpaceRentalSystem.sol\":1521:2031  function rentSpace(uint256 _space, uint256 _duration) external payable {... */\n    tag_6:\n      tag_29\n      0x04\n      dup1\n      calldatasize\n      sub\n      dup2\n      add\n      swap1\n      tag_30\n      swap2\n      swap1\n      tag_31\n      jump\t// in\n    tag_30:\n      tag_32\n      jump\t// in\n    tag_29:\n      stop\n        /* \"DiskSpaceRentalSystem.sol\":2699:2797  function getRentalCount() external view returns (uint256) {... */\n    tag_7:\n      callvalue\n      dup1\n      iszero\n      tag_33\n      jumpi\n      0x00\n      dup1\n      revert\n    tag_33:\n      pop\n      tag_34\n      tag_35\n      jump\t// in\n    tag_34:\n      mload(0x40)\n      tag_36\n      swap2\n      swap1\n      tag_15\n      jump\t// in\n    tag_36:\n      mload(0x40)\n      dup1\n      swap2\n      sub\n      swap1\n      return\n        /* \"DiskSpaceRentalSystem.sol\":579:599  address public owner */\n    tag_8:\n      callvalue\n      dup1\n      iszero\n      tag_37\n      jumpi\n      0x00\n      dup1\n      revert\n    tag_37:\n      pop\n      tag_38\n      tag_39\n      jump\t// in\n    tag_38:\n      mload(0x40)\n      tag_40\n      swap2\n      swap1\n      tag_41\n      jump\t// in\n    tag_40:\n      mload(0x40)\n      dup1\n      swap2\n      sub\n      swap1\n      return\n        /* \"DiskSpaceRentalSystem.sol\":912:935  Rental[] public rentals */\n    tag_9:\n      callvalue\n      dup1\n      iszero\n      tag_42\n      jumpi\n      0x00\n      dup1\n      revert\n    tag_42:\n      pop\n      tag_43\n      0x04\n      dup1\n      calldatasize\n      sub\n      dup2\n      add\n      swap1\n      tag_44\n      swap2\n      swap1\n      tag_23\n      jump\t// in\n    tag_44:\n      tag_45\n      jump\t// in\n    tag_43:\n      mload(0x40)\n      tag_46\n      swap6\n      swap5\n      swap4\n      swap3\n      swap2\n      swap1\n      tag_47\n      jump\t// in\n    tag_46:\n      mload(0x40)\n      dup1\n      swap2\n      sub\n      swap1\n      return\n        /* \"DiskSpaceRentalSystem.sol\":687:716  uint256 public totalDiskSpace */\n    tag_13:\n      sload(0x02)\n      dup2\n      jump\t// out\n        /* \"DiskSpaceRentalSystem.sol\":606:632  uint256 public rentalPrice */\n    tag_18:\n      sload(0x01)\n      dup2\n      jump\t// out\n        /* \"DiskSpaceRentalSystem.sol\":2039:2691  function closeRental(uint256 _rentalID) external onlyOwner {... */\n    tag_24:\n        /* \"DiskSpaceRentalSystem.sol\":1205:1210  owner */\n      0x00\n      dup1\n      sload\n      swap1\n      0x0100\n      exp\n      swap1\n      div\n      0xffffffffffffffffffffffffffffffffffffffff\n      and\n        /* \"DiskSpaceRentalSystem.sol\":1191:1210  msg.sender == owner */\n      0xffffffffffffffffffffffffffffffffffffffff\n      and\n        /* \"DiskSpaceRentalSystem.sol\":1191:1201  msg.sender */\n      caller\n        /* \"DiskSpaceRentalSystem.sol\":1191:1210  msg.sender == owner */\n      0xffffffffffffffffffffffffffffffffffffffff\n      and\n      eq\n        /* \"DiskSpaceRentalSystem.sol\":1183:1252  require(msg.sender == owner, \"Only the owner can call this function\") */\n      tag_49\n      jumpi\n      mload(0x40)\n      0x08c379a000000000000000000000000000000000000000000000000000000000\n      dup2\n      mstore\n      0x04\n      add\n      tag_50\n      swap1\n      tag_51\n      jump\t// in\n    tag_50:\n      mload(0x40)\n      dup1\n      swap2\n      sub\n      swap1\n      revert\n    tag_49:\n        /* \"DiskSpaceRentalSystem.sol\":2129:2136  rentals */\n      0x04\n        /* \"DiskSpaceRentalSystem.sol\":2129:2143  rentals.length */\n      dup1\n      sload\n      swap1\n      pop\n        /* \"DiskSpaceRentalSystem.sol\":2117:2126  _rentalID */\n      dup2\n        /* \"DiskSpaceRentalSystem.sol\":2117:2143  _rentalID < rentals.length */\n      lt\n        /* \"DiskSpaceRentalSystem.sol\":2109:2165  require(_rentalID < rentals.length, \"Invalid rental ID\") */\n      tag_53\n      jumpi\n      mload(0x40)\n      0x08c379a000000000000000000000000000000000000000000000000000000000\n      dup2\n      mstore\n      0x04\n      add\n      tag_54\n      swap1\n      tag_55\n      jump\t// in\n    tag_54:\n      mload(0x40)\n      dup1\n      swap2\n      sub\n      swap1\n      revert\n    tag_53:\n        /* \"DiskSpaceRentalSystem.sol\":2184:2191  rentals */\n      0x04\n        /* \"DiskSpaceRentalSystem.sol\":2192:2201  _rentalID */\n      dup2\n        /* \"DiskSpaceRentalSystem.sol\":2184:2202  rentals[_rentalID] */\n      dup2\n      sload\n      dup2\n      lt\n      tag_56\n      jumpi\n      tag_57\n      tag_58\n      jump\t// in\n    tag_57:\n    tag_56:\n      swap1\n      0x00\n      mstore\n      keccak256(0x00, 0x20)\n      swap1\n      0x05\n      mul\n      add\n        /* \"DiskSpaceRentalSystem.sol\":2184:2209  rentals[_rentalID].active */\n      0x04\n      add\n      0x00\n      swap1\n      sload\n      swap1\n      0x0100\n      exp\n      swap1\n      div\n      0xff\n      and\n        /* \"DiskSpaceRentalSystem.sol\":2176:2234  require(rentals[_rentalID].active, \"Rental is not active\") */\n      tag_60\n      jumpi\n      mload(0x40)\n      0x08c379a000000000000000000000000000000000000000000000000000000000\n      dup2\n      mstore\n      0x04\n      add\n      tag_61\n      swap1\n      tag_62\n      jump\t// in\n    tag_61:\n      mload(0x40)\n      dup1\n      swap2\n      sub\n      swap1\n      revert\n    tag_60:\n        /* \"DiskSpaceRentalSystem.sol\":2247:2262  uint256 endTime */\n      0x00\n        /* \"DiskSpaceRentalSystem.sol\":2265:2280  block.timestamp */\n      timestamp\n        /* \"DiskSpaceRentalSystem.sol\":2247:2280  uint256 endTime = block.timestamp */\n      swap1\n      pop\n        /* \"DiskSpaceRentalSystem.sol\":2291:2304  uint256 space */\n      0x00\n        /* \"DiskSpaceRentalSystem.sol\":2307:2314  rentals */\n      0x04\n        /* \"DiskSpaceRentalSystem.sol\":2315:2324  _rentalID */\n      dup4\n        /* \"DiskSpaceRentalSystem.sol\":2307:2325  rentals[_rentalID] */\n      dup2\n      sload\n      dup2\n      lt\n      tag_63\n      jumpi\n      tag_64\n      tag_58\n      jump\t// in\n    tag_64:\n    tag_63:\n      swap1\n      0x00\n      mstore\n      keccak256(0x00, 0x20)\n      swap1\n      0x05\n      mul\n      add\n        /* \"DiskSpaceRentalSystem.sol\":2307:2331  rentals[_rentalID].space */\n      0x01\n      add\n      sload\n        /* \"DiskSpaceRentalSystem.sol\":2291:2331  uint256 space = rentals[_rentalID].space */\n      swap1\n      pop\n        /* \"DiskSpaceRentalSystem.sol\":2342:2355  uint256 start */\n      0x00\n        /* \"DiskSpaceRentalSystem.sol\":2358:2365  rentals */\n      0x04\n        /* \"DiskSpaceRentalSystem.sol\":2366:2375  _rentalID */\n      dup5\n        /* \"DiskSpaceRentalSystem.sol\":2358:2376  rentals[_rentalID] */\n      dup2\n      sload\n      dup2\n      lt\n      tag_66\n      jumpi\n      tag_67\n      tag_58\n      jump\t// in\n    tag_67:\n    tag_66:\n      swap1\n      0x00\n      mstore\n      keccak256(0x00, 0x20)\n      swap1\n      0x05\n      mul\n      add\n        /* \"DiskSpaceRentalSystem.sol\":2358:2382  rentals[_rentalID].start */\n      0x02\n      add\n      sload\n        /* \"DiskSpaceRentalSystem.sol\":2342:2382  uint256 start = rentals[_rentalID].start */\n      swap1\n      pop\n        /* \"DiskSpaceRentalSystem.sol\":2423:2428  false */\n      0x00\n        /* \"DiskSpaceRentalSystem.sol\":2395:2402  rentals */\n      0x04\n        /* \"DiskSpaceRentalSystem.sol\":2403:2412  _rentalID */\n      dup6\n        /* \"DiskSpaceRentalSystem.sol\":2395:2413  rentals[_rentalID] */\n      dup2\n      sload\n      dup2\n      lt\n      tag_69\n      jumpi\n      tag_70\n      tag_58\n      jump\t// in\n    tag_70:\n    tag_69:\n      swap1\n      0x00\n      mstore\n      keccak256(0x00, 0x20)\n      swap1\n      0x05\n      mul\n      add\n        /* \"DiskSpaceRentalSystem.sol\":2395:2420  rentals[_rentalID].active */\n      0x04\n      add\n      0x00\n        /* \"DiskSpaceRentalSystem.sol\":2395:2428  rentals[_rentalID].active = false */\n      0x0100\n      exp\n      dup2\n      sload\n      dup2\n      0xff\n      mul\n      not\n      and\n      swap1\n      dup4\n      iszero\n      iszero\n      mul\n      or\n      swap1\n      sstore\n      pop\n        /* \"DiskSpaceRentalSystem.sol\":2461:2466  space */\n      dup2\n        /* \"DiskSpaceRentalSystem.sol\":2439:2457  availableDiskSpace */\n      0x03\n      0x00\n        /* \"DiskSpaceRentalSystem.sol\":2439:2466  availableDiskSpace += space */\n      dup3\n      dup3\n      sload\n      tag_72\n      swap2\n      swap1\n      tag_73\n      jump\t// in\n    tag_72:\n      swap3\n      pop\n      pop\n      dup2\n      swap1\n      sstore\n      pop\n        /* \"DiskSpaceRentalSystem.sol\":2536:2541  owner */\n      0x00\n      dup1\n      sload\n      swap1\n      0x0100\n      exp\n      swap1\n      div\n      0xffffffffffffffffffffffffffffffffffffffff\n      and\n        /* \"DiskSpaceRentalSystem.sol\":2528:2551  payable(owner).transfer */\n      0xffffffffffffffffffffffffffffffffffffffff\n      and\n        /* \"DiskSpaceRentalSystem.sol\":2528:2592  payable(owner).transfer(rentalPrice * space * (endTime - start)) */\n      0x08fc\n        /* \"DiskSpaceRentalSystem.sol\":2585:2590  start */\n      dup3\n        /* \"DiskSpaceRentalSystem.sol\":2575:2582  endTime */\n      dup6\n        /* \"DiskSpaceRentalSystem.sol\":2575:2590  endTime - start */\n      tag_74\n      swap2\n      swap1\n      tag_75\n      jump\t// in\n    tag_74:\n        /* \"DiskSpaceRentalSystem.sol\":2566:2571  space */\n      dup5\n        /* \"DiskSpaceRentalSystem.sol\":2552:2563  rentalPrice */\n      sload(0x01)\n        /* \"DiskSpaceRentalSystem.sol\":2552:2571  rentalPrice * space */\n      tag_76\n      swap2\n      swap1\n      tag_77\n      jump\t// in\n    tag_76:\n        /* \"DiskSpaceRentalSystem.sol\":2552:2591  rentalPrice * space * (endTime - start) */\n      tag_78\n      swap2\n      swap1\n      tag_77\n      jump\t// in\n    tag_78:\n        /* \"DiskSpaceRentalSystem.sol\":2528:2592  payable(owner).transfer(rentalPrice * space * (endTime - start)) */\n      swap1\n      dup2\n      iszero\n      mul\n      swap1\n      mload(0x40)\n      0x00\n      mload(0x40)\n      dup1\n      dup4\n      sub\n      dup2\n      dup6\n      dup9\n      dup9\n      call\n      swap4\n      pop\n      pop\n      pop\n      pop\n      iszero\n      dup1\n      iszero\n      tag_80\n      jumpi\n      returndatasize\n      0x00\n      dup1\n      returndatacopy\n      revert(0x00, returndatasize)\n    tag_80:\n      pop\n        /* \"DiskSpaceRentalSystem.sol\":2610:2683  RentalClosed(_rentalID, rentals[_rentalID].renter, space, start, endTime) */\n      0x8cd124b269b4ba726d0d8d7cbdb34ed368a0b04b0ef1904020d478955ed613e2\n        /* \"DiskSpaceRentalSystem.sol\":2623:2632  _rentalID */\n      dup5\n        /* \"DiskSpaceRentalSystem.sol\":2634:2641  rentals */\n      0x04\n        /* \"DiskSpaceRentalSystem.sol\":2642:2651  _rentalID */\n      dup7\n        /* \"DiskSpaceRentalSystem.sol\":2634:2652  rentals[_rentalID] */\n      dup2\n      sload\n      dup2\n      lt\n      tag_81\n      jumpi\n      tag_82\n      tag_58\n      jump\t// in\n    tag_82:\n    tag_81:\n      swap1\n      0x00\n      mstore\n      keccak256(0x00, 0x20)\n      swap1\n      0x05\n      mul\n      add\n        /* \"DiskSpaceRentalSystem.sol\":2634:2659  rentals[_rentalID].renter */\n      0x00\n      add\n      0x00\n      swap1\n      sload\n      swap1\n      0x0100\n      exp\n      swap1\n      div\n      0xffffffffffffffffffffffffffffffffffffffff\n      and\n        /* \"DiskSpaceRentalSystem.sol\":2661:2666  space */\n      dup5\n        /* \"DiskSpaceRentalSystem.sol\":2668:2673  start */\n      dup5\n        /* \"DiskSpaceRentalSystem.sol\":2675:2682  endTime */\n      dup8\n        /* \"DiskSpaceRentalSystem.sol\":2610:2683  RentalClosed(_rentalID, rentals[_rentalID].renter, space, start, endTime) */\n      mload(0x40)\n      tag_84\n      swap6\n      swap5\n      swap4\n      swap3\n      swap2\n      swap1\n      tag_85\n      jump\t// in\n    tag_84:\n      mload(0x40)\n      dup1\n      swap2\n      sub\n      swap1\n      log1\n        /* \"DiskSpaceRentalSystem.sol\":2098:2691  {... */\n      pop\n      pop\n      pop\n        /* \"DiskSpaceRentalSystem.sol\":2039:2691  function closeRental(uint256 _rentalID) external onlyOwner {... */\n      pop\n      jump\t// out\n        /* \"DiskSpaceRentalSystem.sol\":723:756  uint256 public availableDiskSpace */\n    tag_27:\n      sload(0x03)\n      dup2\n      jump\t// out\n        /* \"DiskSpaceRentalSystem.sol\":1521:2031  function rentSpace(uint256 _space, uint256 _duration) external payable {... */\n    tag_32:\n        /* \"DiskSpaceRentalSystem.sol\":1633:1639  _space */\n      dup2\n        /* \"DiskSpaceRentalSystem.sol\":1611:1629  availableDiskSpace */\n      sload(0x03)\n        /* \"DiskSpaceRentalSystem.sol\":1611:1639  availableDiskSpace >= _space */\n      lt\n      iszero\n        /* \"DiskSpaceRentalSystem.sol\":1603:1672  require(availableDiskSpace >= _space, \"Insufficient available space\") */\n      tag_87\n      jumpi\n      mload(0x40)\n      0x08c379a000000000000000000000000000000000000000000000000000000000\n      dup2\n      mstore\n      0x04\n      add\n      tag_88\n      swap1\n      tag_89\n      jump\t// in\n    tag_88:\n      mload(0x40)\n      dup1\n      swap2\n      sub\n      swap1\n      revert\n    tag_87:\n        /* \"DiskSpaceRentalSystem.sol\":1727:1736  _duration */\n      dup1\n        /* \"DiskSpaceRentalSystem.sol\":1718:1724  _space */\n      dup3\n        /* \"DiskSpaceRentalSystem.sol\":1704:1715  rentalPrice */\n      sload(0x01)\n        /* \"DiskSpaceRentalSystem.sol\":1704:1724  rentalPrice * _space */\n      tag_90\n      swap2\n      swap1\n      tag_77\n      jump\t// in\n    tag_90:\n        /* \"DiskSpaceRentalSystem.sol\":1704:1736  rentalPrice * _space * _duration */\n      tag_91\n      swap2\n      swap1\n      tag_77\n      jump\t// in\n    tag_91:\n        /* \"DiskSpaceRentalSystem.sol\":1691:1700  msg.value */\n      callvalue\n        /* \"DiskSpaceRentalSystem.sol\":1691:1736  msg.value == rentalPrice * _space * _duration */\n      eq\n        /* \"DiskSpaceRentalSystem.sol\":1683:1764  require(msg.value == rentalPrice * _space * _duration, \"Insufficient funds sent\") */\n      tag_92\n      jumpi\n      mload(0x40)\n      0x08c379a000000000000000000000000000000000000000000000000000000000\n      dup2\n      mstore\n      0x04\n      add\n      tag_93\n      swap1\n      tag_94\n      jump\t// in\n    tag_93:\n      mload(0x40)\n      dup1\n      swap2\n      sub\n      swap1\n      revert\n    tag_92:\n        /* \"DiskSpaceRentalSystem.sol\":1777:1784  rentals */\n      0x04\n        /* \"DiskSpaceRentalSystem.sol\":1790:1868  Rental(msg.sender, _space, block.timestamp, block.timestamp + _duration, true) */\n      mload(0x40)\n      dup1\n      0xa0\n      add\n      0x40\n      mstore\n      dup1\n        /* \"DiskSpaceRentalSystem.sol\":1797:1807  msg.sender */\n      caller\n        /* \"DiskSpaceRentalSystem.sol\":1790:1868  Rental(msg.sender, _space, block.timestamp, block.timestamp + _duration, true) */\n      0xffffffffffffffffffffffffffffffffffffffff\n      and\n      dup2\n      mstore\n      0x20\n      add\n        /* \"DiskSpaceRentalSystem.sol\":1809:1815  _space */\n      dup5\n        /* \"DiskSpaceRentalSystem.sol\":1790:1868  Rental(msg.sender, _space, block.timestamp, block.timestamp + _duration, true) */\n      dup2\n      mstore\n      0x20\n      add\n        /* \"DiskSpaceRentalSystem.sol\":1817:1832  block.timestamp */\n      timestamp\n        /* \"DiskSpaceRentalSystem.sol\":1790:1868  Rental(msg.sender, _space, block.timestamp, block.timestamp + _duration, true) */\n      dup2\n      mstore\n      0x20\n      add\n        /* \"DiskSpaceRentalSystem.sol\":1852:1861  _duration */\n      dup4\n        /* \"DiskSpaceRentalSystem.sol\":1834:1849  block.timestamp */\n      timestamp\n        /* \"DiskSpaceRentalSystem.sol\":1834:1861  block.timestamp + _duration */\n      tag_95\n      swap2\n      swap1\n      tag_73\n      jump\t// in\n    tag_95:\n        /* \"DiskSpaceRentalSystem.sol\":1790:1868  Rental(msg.sender, _space, block.timestamp, block.timestamp + _duration, true) */\n      dup2\n      mstore\n      0x20\n      add\n        /* \"DiskSpaceRentalSystem.sol\":1863:1867  true */\n      0x01\n        /* \"DiskSpaceRentalSystem.sol\":1790:1868  Rental(msg.sender, _space, block.timestamp, block.timestamp + _duration, true) */\n      iszero\n      iszero\n      dup2\n      mstore\n      pop\n        /* \"DiskSpaceRentalSystem.sol\":1777:1869  rentals.push(Rental(msg.sender, _space, block.timestamp, block.timestamp + _duration, true)) */\n      swap1\n      dup1\n      0x01\n      dup2\n      sload\n      add\n      dup1\n      dup3\n      sstore\n      dup1\n      swap2\n      pop\n      pop\n      0x01\n      swap1\n      sub\n      swap1\n      0x00\n      mstore\n      keccak256(0x00, 0x20)\n      swap1\n      0x05\n      mul\n      add\n      0x00\n      swap1\n      swap2\n      swap1\n      swap2\n      swap1\n      swap2\n      pop\n      0x00\n      dup3\n      add\n      mload\n      dup2\n      0x00\n      add\n      exp(0x0100, 0x00)\n      dup2\n      sload\n      dup2\n      0xffffffffffffffffffffffffffffffffffffffff\n      mul\n      not\n      and\n      swap1\n      dup4\n      0xffffffffffffffffffffffffffffffffffffffff\n      and\n      mul\n      or\n      swap1\n      sstore\n      pop\n      0x20\n      dup3\n      add\n      mload\n      dup2\n      0x01\n      add\n      sstore\n      0x40\n      dup3\n      add\n      mload\n      dup2\n      0x02\n      add\n      sstore\n      0x60\n      dup3\n      add\n      mload\n      dup2\n      0x03\n      add\n      sstore\n      0x80\n      dup3\n      add\n      mload\n      dup2\n      0x04\n      add\n      exp(0x0100, 0x00)\n      dup2\n      sload\n      dup2\n      0xff\n      mul\n      not\n      and\n      swap1\n      dup4\n      iszero\n      iszero\n      mul\n      or\n      swap1\n      sstore\n      pop\n      pop\n      pop\n        /* \"DiskSpaceRentalSystem.sol\":1902:1908  _space */\n      dup2\n        /* \"DiskSpaceRentalSystem.sol\":1880:1898  availableDiskSpace */\n      0x03\n      0x00\n        /* \"DiskSpaceRentalSystem.sol\":1880:1908  availableDiskSpace -= _space */\n      dup3\n      dup3\n      sload\n      tag_97\n      swap2\n      swap1\n      tag_75\n      jump\t// in\n    tag_97:\n      swap3\n      pop\n      pop\n      dup2\n      swap1\n      sstore\n      pop\n        /* \"DiskSpaceRentalSystem.sol\":1924:2023  RentalCreated(rentals.length - 1, msg.sender, _space, block.timestamp, block.timestamp + _duration) */\n      0x3212cbfe361059c5b3920e237317f5db93b01494d56fc3b2549790b542824458\n        /* \"DiskSpaceRentalSystem.sol\":1955:1956  1 */\n      0x01\n        /* \"DiskSpaceRentalSystem.sol\":1938:1945  rentals */\n      0x04\n        /* \"DiskSpaceRentalSystem.sol\":1938:1952  rentals.length */\n      dup1\n      sload\n      swap1\n      pop\n        /* \"DiskSpaceRentalSystem.sol\":1938:1956  rentals.length - 1 */\n      tag_98\n      swap2\n      swap1\n      tag_75\n      jump\t// in\n    tag_98:\n        /* \"DiskSpaceRentalSystem.sol\":1958:1968  msg.sender */\n      caller\n        /* \"DiskSpaceRentalSystem.sol\":1970:1976  _space */\n      dup5\n        /* \"DiskSpaceRentalSystem.sol\":1978:1993  block.timestamp */\n      timestamp\n        /* \"DiskSpaceRentalSystem.sol\":2013:2022  _duration */\n      dup6\n        /* \"DiskSpaceRentalSystem.sol\":1995:2010  block.timestamp */\n      timestamp\n        /* \"DiskSpaceRentalSystem.sol\":1995:2022  block.timestamp + _duration */\n      tag_99\n      swap2\n      swap1\n      tag_73\n      jump\t// in\n    tag_99:\n        /* \"DiskSpaceRentalSystem.sol\":1924:2023  RentalCreated(rentals.length - 1, msg.sender, _space, block.timestamp, block.timestamp + _duration) */\n      mload(0x40)\n      tag_100\n      swap6\n      swap5\n      swap4\n      swap3\n      swap2\n      swap1\n      tag_85\n      jump\t// in\n    tag_100:\n      mload(0x40)\n      dup1\n      swap2\n      sub\n      swap1\n      log1\n        /* \"DiskSpaceRentalSystem.sol\":1521:2031  function rentSpace(uint256 _space, uint256 _duration) external payable {... */\n      pop\n      pop\n      jump\t// out\n        /* \"DiskSpaceRentalSystem.sol\":2699:2797  function getRentalCount() external view returns (uint256) {... */\n    tag_35:\n        /* \"DiskSpaceRentalSystem.sol\":2748:2755  uint256 */\n      0x00\n        /* \"DiskSpaceRentalSystem.sol\":2775:2782  rentals */\n      0x04\n        /* \"DiskSpaceRentalSystem.sol\":2775:2789  rentals.length */\n      dup1\n      sload\n      swap1\n      pop\n        /* \"DiskSpaceRentalSystem.sol\":2768:2789  return rentals.length */\n      swap1\n      pop\n        /* \"DiskSpaceRentalSystem.sol\":2699:2797  function getRentalCount() external view returns (uint256) {... */\n      swap1\n      jump\t// out\n        /* \"DiskSpaceRentalSystem.sol\":579:599  address public owner */\n    tag_39:\n      0x00\n      dup1\n      sload\n      swap1\n      0x0100\n      exp\n      swap1\n      div\n      0xffffffffffffffffffffffffffffffffffffffff\n      and\n      dup2\n      jump\t// out\n        /* \"DiskSpaceRentalSystem.sol\":912:935  Rental[] public rentals */\n    tag_45:\n      0x04\n      dup2\n      dup2\n      sload\n      dup2\n      lt\n      tag_102\n      jumpi\n      0x00\n      dup1\n      revert\n    tag_102:\n      swap1\n      0x00\n      mstore\n      keccak256(0x00, 0x20)\n      swap1\n      0x05\n      mul\n      add\n      0x00\n      swap2\n      pop\n      swap1\n      pop\n      dup1\n      0x00\n      add\n      0x00\n      swap1\n      sload\n      swap1\n      0x0100\n      exp\n      swap1\n      div\n      0xffffffffffffffffffffffffffffffffffffffff\n      and\n      swap1\n      dup1\n      0x01\n      add\n      sload\n      swap1\n      dup1\n      0x02\n      add\n      sload\n      swap1\n      dup1\n      0x03\n      add\n      sload\n      swap1\n      dup1\n      0x04\n      add\n      0x00\n      swap1\n      sload\n      swap1\n      0x0100\n      exp\n      swap1\n      div\n      0xff\n      and\n      swap1\n      pop\n      dup6\n      jump\t// out\n        /* \"#utility.yul\":7:84   */\n    tag_104:\n        /* \"#utility.yul\":44:51   */\n      0x00\n        /* \"#utility.yul\":73:78   */\n      dup2\n        /* \"#utility.yul\":62:78   */\n      swap1\n      pop\n        /* \"#utility.yul\":7:84   */\n      swap2\n      swap1\n      pop\n      jump\t// out\n        /* \"#utility.yul\":90:208   */\n    tag_105:\n        /* \"#utility.yul\":177:201   */\n      tag_131\n        /* \"#utility.yul\":195:200   */\n      dup2\n        /* \"#utility.yul\":177:201   */\n      tag_104\n      jump\t// in\n    tag_131:\n        /* \"#utility.yul\":172:175   */\n      dup3\n        /* \"#utility.yul\":165:202   */\n      mstore\n        /* \"#utility.yul\":90:208   */\n      pop\n      pop\n      jump\t// out\n        /* \"#utility.yul\":214:436   */\n    tag_15:\n        /* \"#utility.yul\":307:311   */\n      0x00\n        /* \"#utility.yul\":345:347   */\n      0x20\n        /* \"#utility.yul\":334:343   */\n      dup3\n        /* \"#utility.yul\":330:348   */\n      add\n        /* \"#utility.yul\":322:348   */\n      swap1\n      pop\n        /* \"#utility.yul\":358:429   */\n      tag_133\n        /* \"#utility.yul\":426:427   */\n      0x00\n        /* \"#utility.yul\":415:424   */\n      dup4\n        /* \"#utility.yul\":411:428   */\n      add\n        /* \"#utility.yul\":402:408   */\n      dup5\n        /* \"#utility.yul\":358:429   */\n      tag_105\n      jump\t// in\n    tag_133:\n        /* \"#utility.yul\":214:436   */\n      swap3\n      swap2\n      pop\n      pop\n      jump\t// out\n        /* \"#utility.yul\":523:640   */\n    tag_107:\n        /* \"#utility.yul\":632:633   */\n      0x00\n        /* \"#utility.yul\":629:630   */\n      dup1\n        /* \"#utility.yul\":622:634   */\n      revert\n        /* \"#utility.yul\":769:891   */\n    tag_109:\n        /* \"#utility.yul\":842:866   */\n      tag_138\n        /* \"#utility.yul\":860:865   */\n      dup2\n        /* \"#utility.yul\":842:866   */\n      tag_104\n      jump\t// in\n    tag_138:\n        /* \"#utility.yul\":835:840   */\n      dup2\n        /* \"#utility.yul\":832:867   */\n      eq\n        /* \"#utility.yul\":822:885   */\n      tag_139\n      jumpi\n        /* \"#utility.yul\":881:882   */\n      0x00\n        /* \"#utility.yul\":878:879   */\n      dup1\n        /* \"#utility.yul\":871:883   */\n      revert\n        /* \"#utility.yul\":822:885   */\n    tag_139:\n        /* \"#utility.yul\":769:891   */\n      pop\n      jump\t// out\n        /* \"#utility.yul\":897:1036   */\n    tag_110:\n        /* \"#utility.yul\":943:948   */\n      0x00\n        /* \"#utility.yul\":981:987   */\n      dup2\n        /* \"#utility.yul\":968:988   */\n      calldataload\n        /* \"#utility.yul\":959:988   */\n      swap1\n      pop\n        /* \"#utility.yul\":997:1030   */\n      tag_141\n        /* \"#utility.yul\":1024:1029   */\n      dup2\n        /* \"#utility.yul\":997:1030   */\n      tag_109\n      jump\t// in\n    tag_141:\n        /* \"#utility.yul\":897:1036   */\n      swap3\n      swap2\n      pop\n      pop\n      jump\t// out\n        /* \"#utility.yul\":1042:1371   */\n    tag_23:\n        /* \"#utility.yul\":1101:1107   */\n      0x00\n        /* \"#utility.yul\":1150:1152   */\n      0x20\n        /* \"#utility.yul\":1138:1147   */\n      dup3\n        /* \"#utility.yul\":1129:1136   */\n      dup5\n        /* \"#utility.yul\":1125:1148   */\n      sub\n        /* \"#utility.yul\":1121:1153   */\n      slt\n        /* \"#utility.yul\":1118:1237   */\n      iszero\n      tag_143\n      jumpi\n        /* \"#utility.yul\":1156:1235   */\n      tag_144\n      tag_107\n      jump\t// in\n    tag_144:\n        /* \"#utility.yul\":1118:1237   */\n    tag_143:\n        /* \"#utility.yul\":1276:1277   */\n      0x00\n        /* \"#utility.yul\":1301:1354   */\n      tag_145\n        /* \"#utility.yul\":1346:1353   */\n      dup5\n        /* \"#utility.yul\":1337:1343   */\n      dup3\n        /* \"#utility.yul\":1326:1335   */\n      dup6\n        /* \"#utility.yul\":1322:1344   */\n      add\n        /* \"#utility.yul\":1301:1354   */\n      tag_110\n      jump\t// in\n    tag_145:\n        /* \"#utility.yul\":1291:1354   */\n      swap2\n      pop\n        /* \"#utility.yul\":1247:1364   */\n      pop\n        /* \"#utility.yul\":1042:1371   */\n      swap3\n      swap2\n      pop\n      pop\n      jump\t// out\n        /* \"#utility.yul\":1377:1851   */\n    tag_31:\n        /* \"#utility.yul\":1445:1451   */\n      0x00\n        /* \"#utility.yul\":1453:1459   */\n      dup1\n        /* \"#utility.yul\":1502:1504   */\n      0x40\n        /* \"#utility.yul\":1490:1499   */\n      dup4\n        /* \"#utility.yul\":1481:1488   */\n      dup6\n        /* \"#utility.yul\":1477:1500   */\n      sub\n        /* \"#utility.yul\":1473:1505   */\n      slt\n        /* \"#utility.yul\":1470:1589   */\n      iszero\n      tag_147\n      jumpi\n        /* \"#utility.yul\":1508:1587   */\n      tag_148\n      tag_107\n      jump\t// in\n    tag_148:\n        /* \"#utility.yul\":1470:1589   */\n    tag_147:\n        /* \"#utility.yul\":1628:1629   */\n      0x00\n        /* \"#utility.yul\":1653:1706   */\n      tag_149\n        /* \"#utility.yul\":1698:1705   */\n      dup6\n        /* \"#utility.yul\":1689:1695   */\n      dup3\n        /* \"#utility.yul\":1678:1687   */\n      dup7\n        /* \"#utility.yul\":1674:1696   */\n      add\n        /* \"#utility.yul\":1653:1706   */\n      tag_110\n      jump\t// in\n    tag_149:\n        /* \"#utility.yul\":1643:1706   */\n      swap3\n      pop\n        /* \"#utility.yul\":1599:1716   */\n      pop\n        /* \"#utility.yul\":1755:1757   */\n      0x20\n        /* \"#utility.yul\":1781:1834   */\n      tag_150\n        /* \"#utility.yul\":1826:1833   */\n      dup6\n        /* \"#utility.yul\":1817:1823   */\n      dup3\n        /* \"#utility.yul\":1806:1815   */\n      dup7\n        /* \"#utility.yul\":1802:1824   */\n      add\n        /* \"#utility.yul\":1781:1834   */\n      tag_110\n      jump\t// in\n    tag_150:\n        /* \"#utility.yul\":1771:1834   */\n      swap2\n      pop\n        /* \"#utility.yul\":1726:1844   */\n      pop\n        /* \"#utility.yul\":1377:1851   */\n      swap3\n      pop\n      swap3\n      swap1\n      pop\n      jump\t// out\n        /* \"#utility.yul\":1857:1983   */\n    tag_111:\n        /* \"#utility.yul\":1894:1901   */\n      0x00\n        /* \"#utility.yul\":1934:1976   */\n      0xffffffffffffffffffffffffffffffffffffffff\n        /* \"#utility.yul\":1927:1932   */\n      dup3\n        /* \"#utility.yul\":1923:1977   */\n      and\n        /* \"#utility.yul\":1912:1977   */\n      swap1\n      pop\n        /* \"#utility.yul\":1857:1983   */\n      swap2\n      swap1\n      pop\n      jump\t// out\n        /* \"#utility.yul\":1989:2085   */\n    tag_112:\n        /* \"#utility.yul\":2026:2033   */\n      0x00\n        /* \"#utility.yul\":2055:2079   */\n      tag_153\n        /* \"#utility.yul\":2073:2078   */\n      dup3\n        /* \"#utility.yul\":2055:2079   */\n      tag_111\n      jump\t// in\n    tag_153:\n        /* \"#utility.yul\":2044:2079   */\n      swap1\n      pop\n        /* \"#utility.yul\":1989:2085   */\n      swap2\n      swap1\n      pop\n      jump\t// out\n        /* \"#utility.yul\":2091:2209   */\n    tag_113:\n        /* \"#utility.yul\":2178:2202   */\n      tag_155\n        /* \"#utility.yul\":2196:2201   */\n      dup2\n        /* \"#utility.yul\":2178:2202   */\n      tag_112\n      jump\t// in\n    tag_155:\n        /* \"#utility.yul\":2173:2176   */\n      dup3\n        /* \"#utility.yul\":2166:2203   */\n      mstore\n        /* \"#utility.yul\":2091:2209   */\n      pop\n      pop\n      jump\t// out\n        /* \"#utility.yul\":2215:2437   */\n    tag_41:\n        /* \"#utility.yul\":2308:2312   */\n      0x00\n        /* \"#utility.yul\":2346:2348   */\n      0x20\n        /* \"#utility.yul\":2335:2344   */\n      dup3\n        /* \"#utility.yul\":2331:2349   */\n      add\n        /* \"#utility.yul\":2323:2349   */\n      swap1\n      pop\n        /* \"#utility.yul\":2359:2430   */\n      tag_157\n        /* \"#utility.yul\":2427:2428   */\n      0x00\n        /* \"#utility.yul\":2416:2425   */\n      dup4\n        /* \"#utility.yul\":2412:2429   */\n      add\n        /* \"#utility.yul\":2403:2409   */\n      dup5\n        /* \"#utility.yul\":2359:2430   */\n      tag_113\n      jump\t// in\n    tag_157:\n        /* \"#utility.yul\":2215:2437   */\n      swap3\n      swap2\n      pop\n      pop\n      jump\t// out\n        /* \"#utility.yul\":2443:2533   */\n    tag_114:\n        /* \"#utility.yul\":2477:2484   */\n      0x00\n        /* \"#utility.yul\":2520:2525   */\n      dup2\n        /* \"#utility.yul\":2513:2526   */\n      iszero\n        /* \"#utility.yul\":2506:2527   */\n      iszero\n        /* \"#utility.yul\":2495:2527   */\n      swap1\n      pop\n        /* \"#utility.yul\":2443:2533   */\n      swap2\n      swap1\n      pop\n      jump\t// out\n        /* \"#utility.yul\":2539:2648   */\n    tag_115:\n        /* \"#utility.yul\":2620:2641   */\n      tag_160\n        /* \"#utility.yul\":2635:2640   */\n      dup2\n        /* \"#utility.yul\":2620:2641   */\n      tag_114\n      jump\t// in\n    tag_160:\n        /* \"#utility.yul\":2615:2618   */\n      dup3\n        /* \"#utility.yul\":2608:2642   */\n      mstore\n        /* \"#utility.yul\":2539:2648   */\n      pop\n      pop\n      jump\t// out\n        /* \"#utility.yul\":2654:3306   */\n    tag_47:\n        /* \"#utility.yul\":2853:2857   */\n      0x00\n        /* \"#utility.yul\":2891:2894   */\n      0xa0\n        /* \"#utility.yul\":2880:2889   */\n      dup3\n        /* \"#utility.yul\":2876:2895   */\n      add\n        /* \"#utility.yul\":2868:2895   */\n      swap1\n      pop\n        /* \"#utility.yul\":2905:2976   */\n      tag_162\n        /* \"#utility.yul\":2973:2974   */\n      0x00\n        /* \"#utility.yul\":2962:2971   */\n      dup4\n        /* \"#utility.yul\":2958:2975   */\n      add\n        /* \"#utility.yul\":2949:2955   */\n      dup9\n        /* \"#utility.yul\":2905:2976   */\n      tag_113\n      jump\t// in\n    tag_162:\n        /* \"#utility.yul\":2986:3058   */\n      tag_163\n        /* \"#utility.yul\":3054:3056   */\n      0x20\n        /* \"#utility.yul\":3043:3052   */\n      dup4\n        /* \"#utility.yul\":3039:3057   */\n      add\n        /* \"#utility.yul\":3030:3036   */\n      dup8\n        /* \"#utility.yul\":2986:3058   */\n      tag_105\n      jump\t// in\n    tag_163:\n        /* \"#utility.yul\":3068:3140   */\n      tag_164\n        /* \"#utility.yul\":3136:3138   */\n      0x40\n        /* \"#utility.yul\":3125:3134   */\n      dup4\n        /* \"#utility.yul\":3121:3139   */\n      add\n        /* \"#utility.yul\":3112:3118   */\n      dup7\n        /* \"#utility.yul\":3068:3140   */\n      tag_105\n      jump\t// in\n    tag_164:\n        /* \"#utility.yul\":3150:3222   */\n      tag_165\n        /* \"#utility.yul\":3218:3220   */\n      0x60\n        /* \"#utility.yul\":3207:3216   */\n      dup4\n        /* \"#utility.yul\":3203:3221   */\n      add\n        /* \"#utility.yul\":3194:3200   */\n      dup6\n        /* \"#utility.yul\":3150:3222   */\n      tag_105\n      jump\t// in\n    tag_165:\n        /* \"#utility.yul\":3232:3299   */\n      tag_166\n        /* \"#utility.yul\":3294:3297   */\n      0x80\n        /* \"#utility.yul\":3283:3292   */\n      dup4\n        /* \"#utility.yul\":3279:3298   */\n      add\n        /* \"#utility.yul\":3270:3276   */\n      dup5\n        /* \"#utility.yul\":3232:3299   */\n      tag_115\n      jump\t// in\n    tag_166:\n        /* \"#utility.yul\":2654:3306   */\n      swap7\n      swap6\n      pop\n      pop\n      pop\n      pop\n      pop\n      pop\n      jump\t// out\n        /* \"#utility.yul\":3312:3481   */\n    tag_116:\n        /* \"#utility.yul\":3396:3407   */\n      0x00\n        /* \"#utility.yul\":3430:3436   */\n      dup3\n        /* \"#utility.yul\":3425:3428   */\n      dup3\n        /* \"#utility.yul\":3418:3437   */\n      mstore\n        /* \"#utility.yul\":3470:3474   */\n      0x20\n        /* \"#utility.yul\":3465:3468   */\n      dup3\n        /* \"#utility.yul\":3461:3475   */\n      add\n        /* \"#utility.yul\":3446:3475   */\n      swap1\n      pop\n        /* \"#utility.yul\":3312:3481   */\n      swap3\n      swap2\n      pop\n      pop\n      jump\t// out\n        /* \"#utility.yul\":3487:3711   */\n    tag_117:\n        /* \"#utility.yul\":3627:3661   */\n      0x4f6e6c7920746865206f776e65722063616e2063616c6c20746869732066756e\n        /* \"#utility.yul\":3623:3624   */\n      0x00\n        /* \"#utility.yul\":3615:3621   */\n      dup3\n        /* \"#utility.yul\":3611:3625   */\n      add\n        /* \"#utility.yul\":3604:3662   */\n      mstore\n        /* \"#utility.yul\":3696:3703   */\n      0x6374696f6e000000000000000000000000000000000000000000000000000000\n        /* \"#utility.yul\":3691:3693   */\n      0x20\n        /* \"#utility.yul\":3683:3689   */\n      dup3\n        /* \"#utility.yul\":3679:3694   */\n      add\n        /* \"#utility.yul\":3672:3704   */\n      mstore\n        /* \"#utility.yul\":3487:3711   */\n      pop\n      jump\t// out\n        /* \"#utility.yul\":3717:4083   */\n    tag_118:\n        /* \"#utility.yul\":3859:3862   */\n      0x00\n        /* \"#utility.yul\":3880:3947   */\n      tag_170\n        /* \"#utility.yul\":3944:3946   */\n      0x25\n        /* \"#utility.yul\":3939:3942   */\n      dup4\n        /* \"#utility.yul\":3880:3947   */\n      tag_116\n      jump\t// in\n    tag_170:\n        /* \"#utility.yul\":3873:3947   */\n      swap2\n      pop\n        /* \"#utility.yul\":3956:4049   */\n      tag_171\n        /* \"#utility.yul\":4045:4048   */\n      dup3\n        /* \"#utility.yul\":3956:4049   */\n      tag_117\n      jump\t// in\n    tag_171:\n        /* \"#utility.yul\":4074:4076   */\n      0x40\n        /* \"#utility.yul\":4069:4072   */\n      dup3\n        /* \"#utility.yul\":4065:4077   */\n      add\n        /* \"#utility.yul\":4058:4077   */\n      swap1\n      pop\n        /* \"#utility.yul\":3717:4083   */\n      swap2\n      swap1\n      pop\n      jump\t// out\n        /* \"#utility.yul\":4089:4508   */\n    tag_51:\n        /* \"#utility.yul\":4255:4259   */\n      0x00\n        /* \"#utility.yul\":4293:4295   */\n      0x20\n        /* \"#utility.yul\":4282:4291   */\n      dup3\n        /* \"#utility.yul\":4278:4296   */\n      add\n        /* \"#utility.yul\":4270:4296   */\n      swap1\n      pop\n        /* \"#utility.yul\":4342:4351   */\n      dup2\n        /* \"#utility.yul\":4336:4340   */\n      dup2\n        /* \"#utility.yul\":4332:4352   */\n      sub\n        /* \"#utility.yul\":4328:4329   */\n      0x00\n        /* \"#utility.yul\":4317:4326   */\n      dup4\n        /* \"#utility.yul\":4313:4330   */\n      add\n        /* \"#utility.yul\":4306:4353   */\n      mstore\n        /* \"#utility.yul\":4370:4501   */\n      tag_173\n        /* \"#utility.yul\":4496:4500   */\n      dup2\n        /* \"#utility.yul\":4370:4501   */\n      tag_118\n      jump\t// in\n    tag_173:\n        /* \"#utility.yul\":4362:4501   */\n      swap1\n      pop\n        /* \"#utility.yul\":4089:4508   */\n      swap2\n      swap1\n      pop\n      jump\t// out\n        /* \"#utility.yul\":4514:4681   */\n    tag_119:\n        /* \"#utility.yul\":4654:4673   */\n      0x496e76616c69642072656e74616c204944000000000000000000000000000000\n        /* \"#utility.yul\":4650:4651   */\n      0x00\n        /* \"#utility.yul\":4642:4648   */\n      dup3\n        /* \"#utility.yul\":4638:4652   */\n      add\n        /* \"#utility.yul\":4631:4674   */\n      mstore\n        /* \"#utility.yul\":4514:4681   */\n      pop\n      jump\t// out\n        /* \"#utility.yul\":4687:5053   */\n    tag_120:\n        /* \"#utility.yul\":4829:4832   */\n      0x00\n        /* \"#utility.yul\":4850:4917   */\n      tag_176\n        /* \"#utility.yul\":4914:4916   */\n      0x11\n        /* \"#utility.yul\":4909:4912   */\n      dup4\n        /* \"#utility.yul\":4850:4917   */\n      tag_116\n      jump\t// in\n    tag_176:\n        /* \"#utility.yul\":4843:4917   */\n      swap2\n      pop\n        /* \"#utility.yul\":4926:5019   */\n      tag_177\n        /* \"#utility.yul\":5015:5018   */\n      dup3\n        /* \"#utility.yul\":4926:5019   */\n      tag_119\n      jump\t// in\n    tag_177:\n        /* \"#utility.yul\":5044:5046   */\n      0x20\n        /* \"#utility.yul\":5039:5042   */\n      dup3\n        /* \"#utility.yul\":5035:5047   */\n      add\n        /* \"#utility.yul\":5028:5047   */\n      swap1\n      pop\n        /* \"#utility.yul\":4687:5053   */\n      swap2\n      swap1\n      pop\n      jump\t// out\n        /* \"#utility.yul\":5059:5478   */\n    tag_55:\n        /* \"#utility.yul\":5225:5229   */\n      0x00\n        /* \"#utility.yul\":5263:5265   */\n      0x20\n        /* \"#utility.yul\":5252:5261   */\n      dup3\n        /* \"#utility.yul\":5248:5266   */\n      add\n        /* \"#utility.yul\":5240:5266   */\n      swap1\n      pop\n        /* \"#utility.yul\":5312:5321   */\n      dup2\n        /* \"#utility.yul\":5306:5310   */\n      dup2\n        /* \"#utility.yul\":5302:5322   */\n      sub\n        /* \"#utility.yul\":5298:5299   */\n      0x00\n        /* \"#utility.yul\":5287:5296   */\n      dup4\n        /* \"#utility.yul\":5283:5300   */\n      add\n        /* \"#utility.yul\":5276:5323   */\n      mstore\n        /* \"#utility.yul\":5340:5471   */\n      tag_179\n        /* \"#utility.yul\":5466:5470   */\n      dup2\n        /* \"#utility.yul\":5340:5471   */\n      tag_120\n      jump\t// in\n    tag_179:\n        /* \"#utility.yul\":5332:5471   */\n      swap1\n      pop\n        /* \"#utility.yul\":5059:5478   */\n      swap2\n      swap1\n      pop\n      jump\t// out\n        /* \"#utility.yul\":5484:5664   */\n    tag_58:\n        /* \"#utility.yul\":5532:5609   */\n      0x4e487b7100000000000000000000000000000000000000000000000000000000\n        /* \"#utility.yul\":5529:5530   */\n      0x00\n        /* \"#utility.yul\":5522:5610   */\n      mstore\n        /* \"#utility.yul\":5629:5633   */\n      0x32\n        /* \"#utility.yul\":5626:5627   */\n      0x04\n        /* \"#utility.yul\":5619:5634   */\n      mstore\n        /* \"#utility.yul\":5653:5657   */\n      0x24\n        /* \"#utility.yul\":5650:5651   */\n      0x00\n        /* \"#utility.yul\":5643:5658   */\n      revert\n        /* \"#utility.yul\":5670:5840   */\n    tag_121:\n        /* \"#utility.yul\":5810:5832   */\n      0x52656e74616c206973206e6f7420616374697665000000000000000000000000\n        /* \"#utility.yul\":5806:5807   */\n      0x00\n        /* \"#utility.yul\":5798:5804   */\n      dup3\n        /* \"#utility.yul\":5794:5808   */\n      add\n        /* \"#utility.yul\":5787:5833   */\n      mstore\n        /* \"#utility.yul\":5670:5840   */\n      pop\n      jump\t// out\n        /* \"#utility.yul\":5846:6212   */\n    tag_122:\n        /* \"#utility.yul\":5988:5991   */\n      0x00\n        /* \"#utility.yul\":6009:6076   */\n      tag_183\n        /* \"#utility.yul\":6073:6075   */\n      0x14\n        /* \"#utility.yul\":6068:6071   */\n      dup4\n        /* \"#utility.yul\":6009:6076   */\n      tag_116\n      jump\t// in\n    tag_183:\n        /* \"#utility.yul\":6002:6076   */\n      swap2\n      pop\n        /* \"#utility.yul\":6085:6178   */\n      tag_184\n        /* \"#utility.yul\":6174:6177   */\n      dup3\n        /* \"#utility.yul\":6085:6178   */\n      tag_121\n      jump\t// in\n    tag_184:\n        /* \"#utility.yul\":6203:6205   */\n      0x20\n        /* \"#utility.yul\":6198:6201   */\n      dup3\n        /* \"#utility.yul\":6194:6206   */\n      add\n        /* \"#utility.yul\":6187:6206   */\n      swap1\n      pop\n        /* \"#utility.yul\":5846:6212   */\n      swap2\n      swap1\n      pop\n      jump\t// out\n        /* \"#utility.yul\":6218:6637   */\n    tag_62:\n        /* \"#utility.yul\":6384:6388   */\n      0x00\n        /* \"#utility.yul\":6422:6424   */\n      0x20\n        /* \"#utility.yul\":6411:6420   */\n      dup3\n        /* \"#utility.yul\":6407:6425   */\n      add\n        /* \"#utility.yul\":6399:6425   */\n      swap1\n      pop\n        /* \"#utility.yul\":6471:6480   */\n      dup2\n        /* \"#utility.yul\":6465:6469   */\n      dup2\n        /* \"#utility.yul\":6461:6481   */\n      sub\n        /* \"#utility.yul\":6457:6458   */\n      0x00\n        /* \"#utility.yul\":6446:6455   */\n      dup4\n        /* \"#utility.yul\":6442:6459   */\n      add\n        /* \"#utility.yul\":6435:6482   */\n      mstore\n        /* \"#utility.yul\":6499:6630   */\n      tag_186\n        /* \"#utility.yul\":6625:6629   */\n      dup2\n        /* \"#utility.yul\":6499:6630   */\n      tag_122\n      jump\t// in\n    tag_186:\n        /* \"#utility.yul\":6491:6630   */\n      swap1\n      pop\n        /* \"#utility.yul\":6218:6637   */\n      swap2\n      swap1\n      pop\n      jump\t// out\n        /* \"#utility.yul\":6643:6823   */\n    tag_123:\n        /* \"#utility.yul\":6691:6768   */\n      0x4e487b7100000000000000000000000000000000000000000000000000000000\n        /* \"#utility.yul\":6688:6689   */\n      0x00\n        /* \"#utility.yul\":6681:6769   */\n      mstore\n        /* \"#utility.yul\":6788:6792   */\n      0x11\n        /* \"#utility.yul\":6785:6786   */\n      0x04\n        /* \"#utility.yul\":6778:6793   */\n      mstore\n        /* \"#utility.yul\":6812:6816   */\n      0x24\n        /* \"#utility.yul\":6809:6810   */\n      0x00\n        /* \"#utility.yul\":6802:6817   */\n      revert\n        /* \"#utility.yul\":6829:7020   */\n    tag_73:\n        /* \"#utility.yul\":6869:6872   */\n      0x00\n        /* \"#utility.yul\":6888:6908   */\n      tag_189\n        /* \"#utility.yul\":6906:6907   */\n      dup3\n        /* \"#utility.yul\":6888:6908   */\n      tag_104\n      jump\t// in\n    tag_189:\n        /* \"#utility.yul\":6883:6908   */\n      swap2\n      pop\n        /* \"#utility.yul\":6922:6942   */\n      tag_190\n        /* \"#utility.yul\":6940:6941   */\n      dup4\n        /* \"#utility.yul\":6922:6942   */\n      tag_104\n      jump\t// in\n    tag_190:\n        /* \"#utility.yul\":6917:6942   */\n      swap3\n      pop\n        /* \"#utility.yul\":6965:6966   */\n      dup3\n        /* \"#utility.yul\":6962:6963   */\n      dup3\n        /* \"#utility.yul\":6958:6967   */\n      add\n        /* \"#utility.yul\":6951:6967   */\n      swap1\n      pop\n        /* \"#utility.yul\":6986:6989   */\n      dup1\n        /* \"#utility.yul\":6983:6984   */\n      dup3\n        /* \"#utility.yul\":6980:6990   */\n      gt\n        /* \"#utility.yul\":6977:7013   */\n      iszero\n      tag_191\n      jumpi\n        /* \"#utility.yul\":6993:7011   */\n      tag_192\n      tag_123\n      jump\t// in\n    tag_192:\n        /* \"#utility.yul\":6977:7013   */\n    tag_191:\n        /* \"#utility.yul\":6829:7020   */\n      swap3\n      swap2\n      pop\n      pop\n      jump\t// out\n        /* \"#utility.yul\":7026:7220   */\n    tag_75:\n        /* \"#utility.yul\":7066:7070   */\n      0x00\n        /* \"#utility.yul\":7086:7106   */\n      tag_194\n        /* \"#utility.yul\":7104:7105   */\n      dup3\n        /* \"#utility.yul\":7086:7106   */\n      tag_104\n      jump\t// in\n    tag_194:\n        /* \"#utility.yul\":7081:7106   */\n      swap2\n      pop\n        /* \"#utility.yul\":7120:7140   */\n      tag_195\n        /* \"#utility.yul\":7138:7139   */\n      dup4\n        /* \"#utility.yul\":7120:7140   */\n      tag_104\n      jump\t// in\n    tag_195:\n        /* \"#utility.yul\":7115:7140   */\n      swap3\n      pop\n        /* \"#utility.yul\":7164:7165   */\n      dup3\n        /* \"#utility.yul\":7161:7162   */\n      dup3\n        /* \"#utility.yul\":7157:7166   */\n      sub\n        /* \"#utility.yul\":7149:7166   */\n      swap1\n      pop\n        /* \"#utility.yul\":7188:7189   */\n      dup2\n        /* \"#utility.yul\":7182:7186   */\n      dup2\n        /* \"#utility.yul\":7179:7190   */\n      gt\n        /* \"#utility.yul\":7176:7213   */\n      iszero\n      tag_196\n      jumpi\n        /* \"#utility.yul\":7193:7211   */\n      tag_197\n      tag_123\n      jump\t// in\n    tag_197:\n        /* \"#utility.yul\":7176:7213   */\n    tag_196:\n        /* \"#utility.yul\":7026:7220   */\n      swap3\n      swap2\n      pop\n      pop\n      jump\t// out\n        /* \"#utility.yul\":7226:7636   */\n    tag_77:\n        /* \"#utility.yul\":7266:7273   */\n      0x00\n        /* \"#utility.yul\":7289:7309   */\n      tag_199\n        /* \"#utility.yul\":7307:7308   */\n      dup3\n        /* \"#utility.yul\":7289:7309   */\n      tag_104\n      jump\t// in\n    tag_199:\n        /* \"#utility.yul\":7284:7309   */\n      swap2\n      pop\n        /* \"#utility.yul\":7323:7343   */\n      tag_200\n        /* \"#utility.yul\":7341:7342   */\n      dup4\n        /* \"#utility.yul\":7323:7343   */\n      tag_104\n      jump\t// in\n    tag_200:\n        /* \"#utility.yul\":7318:7343   */\n      swap3\n      pop\n        /* \"#utility.yul\":7378:7379   */\n      dup3\n        /* \"#utility.yul\":7375:7376   */\n      dup3\n        /* \"#utility.yul\":7371:7380   */\n      mul\n        /* \"#utility.yul\":7400:7430   */\n      tag_201\n        /* \"#utility.yul\":7418:7429   */\n      dup2\n        /* \"#utility.yul\":7400:7430   */\n      tag_104\n      jump\t// in\n    tag_201:\n        /* \"#utility.yul\":7389:7430   */\n      swap2\n      pop\n        /* \"#utility.yul\":7579:7580   */\n      dup3\n        /* \"#utility.yul\":7570:7577   */\n      dup3\n        /* \"#utility.yul\":7566:7581   */\n      div\n        /* \"#utility.yul\":7563:7564   */\n      dup5\n        /* \"#utility.yul\":7560:7582   */\n      eq\n        /* \"#utility.yul\":7540:7541   */\n      dup4\n        /* \"#utility.yul\":7533:7542   */\n      iszero\n        /* \"#utility.yul\":7513:7596   */\n      or\n        /* \"#utility.yul\":7490:7629   */\n      tag_202\n      jumpi\n        /* \"#utility.yul\":7609:7627   */\n      tag_203\n      tag_123\n      jump\t// in\n    tag_203:\n        /* \"#utility.yul\":7490:7629   */\n    tag_202:\n        /* \"#utility.yul\":7274:7636   */\n      pop\n        /* \"#utility.yul\":7226:7636   */\n      swap3\n      swap2\n      pop\n      pop\n      jump\t// out\n        /* \"#utility.yul\":7642:8306   */\n    tag_85:\n        /* \"#utility.yul\":7847:7851   */\n      0x00\n        /* \"#utility.yul\":7885:7888   */\n      0xa0\n        /* \"#utility.yul\":7874:7883   */\n      dup3\n        /* \"#utility.yul\":7870:7889   */\n      add\n        /* \"#utility.yul\":7862:7889   */\n      swap1\n      pop\n        /* \"#utility.yul\":7899:7970   */\n      tag_205\n        /* \"#utility.yul\":7967:7968   */\n      0x00\n        /* \"#utility.yul\":7956:7965   */\n      dup4\n        /* \"#utility.yul\":7952:7969   */\n      add\n        /* \"#utility.yul\":7943:7949   */\n      dup9\n        /* \"#utility.yul\":7899:7970   */\n      tag_105\n      jump\t// in\n    tag_205:\n        /* \"#utility.yul\":7980:8052   */\n      tag_206\n        /* \"#utility.yul\":8048:8050   */\n      0x20\n        /* \"#utility.yul\":8037:8046   */\n      dup4\n        /* \"#utility.yul\":8033:8051   */\n      add\n        /* \"#utility.yul\":8024:8030   */\n      dup8\n        /* \"#utility.yul\":7980:8052   */\n      tag_113\n      jump\t// in\n    tag_206:\n        /* \"#utility.yul\":8062:8134   */\n      tag_207\n        /* \"#utility.yul\":8130:8132   */\n      0x40\n        /* \"#utility.yul\":8119:8128   */\n      dup4\n        /* \"#utility.yul\":8115:8133   */\n      add\n        /* \"#utility.yul\":8106:8112   */\n      dup7\n        /* \"#utility.yul\":8062:8134   */\n      tag_105\n      jump\t// in\n    tag_207:\n        /* \"#utility.yul\":8144:8216   */\n      tag_208\n        /* \"#utility.yul\":8212:8214   */\n      0x60\n        /* \"#utility.yul\":8201:8210   */\n      dup4\n        /* \"#utility.yul\":8197:8215   */\n      add\n        /* \"#utility.yul\":8188:8194   */\n      dup6\n        /* \"#utility.yul\":8144:8216   */\n      tag_105\n      jump\t// in\n    tag_208:\n        /* \"#utility.yul\":8226:8299   */\n      tag_209\n        /* \"#utility.yul\":8294:8297   */\n      0x80\n        /* \"#utility.yul\":8283:8292   */\n      dup4\n        /* \"#utility.yul\":8279:8298   */\n      add\n        /* \"#utility.yul\":8270:8276   */\n      dup5\n        /* \"#utility.yul\":8226:8299   */\n      tag_105\n      jump\t// in\n    tag_209:\n        /* \"#utility.yul\":7642:8306   */\n      swap7\n      swap6\n      pop\n      pop\n      pop\n      pop\n      pop\n      pop\n      jump\t// out\n        /* \"#utility.yul\":8312:8490   */\n    tag_124:\n        /* \"#utility.yul\":8452:8482   */\n      0x496e73756666696369656e7420617661696c61626c6520737061636500000000\n        /* \"#utility.yul\":8448:8449   */\n      0x00\n        /* \"#utility.yul\":8440:8446   */\n      dup3\n        /* \"#utility.yul\":8436:8450   */\n      add\n        /* \"#utility.yul\":8429:8483   */\n      mstore\n        /* \"#utility.yul\":8312:8490   */\n      pop\n      jump\t// out\n        /* \"#utility.yul\":8496:8862   */\n    tag_125:\n        /* \"#utility.yul\":8638:8641   */\n      0x00\n        /* \"#utility.yul\":8659:8726   */\n      tag_212\n        /* \"#utility.yul\":8723:8725   */\n      0x1c\n        /* \"#utility.yul\":8718:8721   */\n      dup4\n        /* \"#utility.yul\":8659:8726   */\n      tag_116\n      jump\t// in\n    tag_212:\n        /* \"#utility.yul\":8652:8726   */\n      swap2\n      pop\n        /* \"#utility.yul\":8735:8828   */\n      tag_213\n        /* \"#utility.yul\":8824:8827   */\n      dup3\n        /* \"#utility.yul\":8735:8828   */\n      tag_124\n      jump\t// in\n    tag_213:\n        /* \"#utility.yul\":8853:8855   */\n      0x20\n        /* \"#utility.yul\":8848:8851   */\n      dup3\n        /* \"#utility.yul\":8844:8856   */\n      add\n        /* \"#utility.yul\":8837:8856   */\n      swap1\n      pop\n        /* \"#utility.yul\":8496:8862   */\n      swap2\n      swap1\n      pop\n      jump\t// out\n        /* \"#utility.yul\":8868:9287   */\n    tag_89:\n        /* \"#utility.yul\":9034:9038   */\n      0x00\n        /* \"#utility.yul\":9072:9074   */\n      0x20\n        /* \"#utility.yul\":9061:9070   */\n      dup3\n        /* \"#utility.yul\":9057:9075   */\n      add\n        /* \"#utility.yul\":9049:9075   */\n      swap1\n      pop\n        /* \"#utility.yul\":9121:9130   */\n      dup2\n        /* \"#utility.yul\":9115:9119   */\n      dup2\n        /* \"#utility.yul\":9111:9131   */\n      sub\n        /* \"#utility.yul\":9107:9108   */\n      0x00\n        /* \"#utility.yul\":9096:9105   */\n      dup4\n        /* \"#utility.yul\":9092:9109   */\n      add\n        /* \"#utility.yul\":9085:9132   */\n      mstore\n        /* \"#utility.yul\":9149:9280   */\n      tag_215\n        /* \"#utility.yul\":9275:9279   */\n      dup2\n        /* \"#utility.yul\":9149:9280   */\n      tag_125\n      jump\t// in\n    tag_215:\n        /* \"#utility.yul\":9141:9280   */\n      swap1\n      pop\n        /* \"#utility.yul\":8868:9287   */\n      swap2\n      swap1\n      pop\n      jump\t// out\n        /* \"#utility.yul\":9293:9466   */\n    tag_126:\n        /* \"#utility.yul\":9433:9458   */\n      0x496e73756666696369656e742066756e64732073656e74000000000000000000\n        /* \"#utility.yul\":9429:9430   */\n      0x00\n        /* \"#utility.yul\":9421:9427   */\n      dup3\n        /* \"#utility.yul\":9417:9431   */\n      add\n        /* \"#utility.yul\":9410:9459   */\n      mstore\n        /* \"#utility.yul\":9293:9466   */\n      pop\n      jump\t// out\n        /* \"#utility.yul\":9472:9838   */\n    tag_127:\n        /* \"#utility.yul\":9614:9617   */\n      0x00\n        /* \"#utility.yul\":9635:9702   */\n      tag_218\n        /* \"#utility.yul\":9699:9701   */\n      0x17\n        /* \"#utility.yul\":9694:9697   */\n      dup4\n        /* \"#utility.yul\":9635:9702   */\n      tag_116\n      jump\t// in\n    tag_218:\n        /* \"#utility.yul\":9628:9702   */\n      swap2\n      pop\n        /* \"#utility.yul\":9711:9804   */\n      tag_219\n        /* \"#utility.yul\":9800:9803   */\n      dup3\n        /* \"#utility.yul\":9711:9804   */\n      tag_126\n      jump\t// in\n    tag_219:\n        /* \"#utility.yul\":9829:9831   */\n      0x20\n        /* \"#utility.yul\":9824:9827   */\n      dup3\n        /* \"#utility.yul\":9820:9832   */\n      add\n        /* \"#utility.yul\":9813:9832   */\n      swap1\n      pop\n        /* \"#utility.yul\":9472:9838   */\n      swap2\n      swap1\n      pop\n      jump\t// out\n        /* \"#utility.yul\":9844:10263   */\n    tag_94:\n        /* \"#utility.yul\":10010:10014   */\n      0x00\n        /* \"#utility.yul\":10048:10050   */\n      0x20\n        /* \"#utility.yul\":10037:10046   */\n      dup3\n        /* \"#utility.yul\":10033:10051   */\n      add\n        /* \"#utility.yul\":10025:10051   */\n      swap1\n      pop\n        /* \"#utility.yul\":10097:10106   */\n      dup2\n        /* \"#utility.yul\":10091:10095   */\n      dup2\n        /* \"#utility.yul\":10087:10107   */\n      sub\n        /* \"#utility.yul\":10083:10084   */\n      0x00\n        /* \"#utility.yul\":10072:10081   */\n      dup4\n        /* \"#utility.yul\":10068:10085   */\n      add\n        /* \"#utility.yul\":10061:10108   */\n      mstore\n        /* \"#utility.yul\":10125:10256   */\n      tag_221\n        /* \"#utility.yul\":10251:10255   */\n      dup2\n        /* \"#utility.yul\":10125:10256   */\n      tag_127\n      jump\t// in\n    tag_221:\n        /* \"#utility.yul\":10117:10256   */\n      swap1\n      pop\n        /* \"#utility.yul\":9844:10263   */\n      swap2\n      swap1\n      pop\n      jump\t// out\n\n    auxdata: 0xa2646970667358221220372b62b836ab10d3484343bc1ad62f13a3fbea0a5fb4bd22b8849e7f61ccdca064736f6c63430008150033\n}\n","bytecode":{"linkReferences":{},"object":"608060405234801562000010575f80fd5b5060405162000e6838038062000e68833981810160405281019062000036919062000130565b805f806101000a81548173ffffffffffffffffffffffffffffffffffffffff021916908373ffffffffffffffffffffffffffffffffffffffff16021790555082600281905550826003819055508160018190555050505062000189565b5f80fd5b5f819050919050565b620000ab8162000097565b8114620000b6575f80fd5b50565b5f81519050620000c981620000a0565b92915050565b5f73ffffffffffffffffffffffffffffffffffffffff82169050919050565b5f620000fa82620000cf565b9050919050565b6200010c81620000ee565b811462000117575f80fd5b50565b5f815190506200012a8162000101565b92915050565b5f805f606084860312156200014a576200014962000093565b5b5f6200015986828701620000b9565b93505060206200016c86828701620000b9565b92505060406200017f868287016200011a565b9150509250925092565b610cd180620001975f395ff3fe60806040526004361061007a575f3560e01c80637b6f86ee1161004d5780637b6f86ee1461012457806383d255bc146101405780638da5cb5b1461016a578063af94a1d1146101945761007a565b80630136f66d1461007e5780631c43cd04146100a857806341f5c650146100d257806369b42dc2146100fa575b5f80fd5b348015610089575f80fd5b506100926101d4565b60405161009f9190610798565b60405180910390f35b3480156100b3575f80fd5b506100bc6101da565b6040516100c99190610798565b60405180910390f35b3480156100dd575f80fd5b506100f860048036038101906100f391906107df565b6101e0565b005b348015610105575f80fd5b5061010e6104d3565b60405161011b9190610798565b60405180910390f35b61013e6004803603810190610139919061080a565b6104d9565b005b34801561014b575f80fd5b506101546106e5565b6040516101619190610798565b60405180910390f35b348015610175575f80fd5b5061017e6106f1565b60405161018b9190610887565b60405180910390f35b34801561019f575f80fd5b506101ba60048036038101906101b591906107df565b610714565b6040516101cb9594939291906108ba565b60405180910390f35b60025481565b60015481565b5f8054906101000a900473ffffffffffffffffffffffffffffffffffffffff1673ffffffffffffffffffffffffffffffffffffffff163373ffffffffffffffffffffffffffffffffffffffff161461026d576040517f08c379a00000000000000000000000000000000000000000000000000000000081526004016102649061098b565b60405180910390fd5b60048054905081106102b4576040517f08c379a00000000000000000000000000000000000000000000000000000000081526004016102ab906109f3565b60405180910390fd5b600481815481106102c8576102c7610a11565b5b905f5260205f2090600502016004015f9054906101000a900460ff16610323576040517f08c379a000000000000000000000000000000000000000000000000000000000815260040161031a90610a88565b60405180910390fd5b5f4290505f6004838154811061033c5761033b610a11565b5b905f5260205f2090600502016001015490505f6004848154811061036357610362610a11565b5b905f5260205f2090600502016002015490505f6004858154811061038a57610389610a11565b5b905f5260205f2090600502016004015f6101000a81548160ff0219169083151502179055508160035f8282546103c09190610ad3565b925050819055505f8054906101000a900473ffffffffffffffffffffffffffffffffffffffff1673ffffffffffffffffffffffffffffffffffffffff166108fc828561040c9190610b06565b8460015461041a9190610b39565b6104249190610b39565b90811502906040515f60405180830381858888f1935050505015801561044c573d5f803e3d5ffd5b507f8cd124b269b4ba726d0d8d7cbdb34ed368a0b04b0ef1904020d478955ed613e2846004868154811061048357610482610a11565b5b905f5260205f2090600502015f015f9054906101000a900473ffffffffffffffffffffffffffffffffffffffff168484876040516104c5959493929190610b7a565b60405180910390a150505050565b60035481565b81600354101561051e576040517f08c379a000000000000000000000000000000000000000000000000000000000815260040161051590610c15565b60405180910390fd5b808260015461052d9190610b39565b6105379190610b39565b3414610578576040517f08c379a000000000000000000000000000000000000000000000000000000000815260040161056f90610c7d565b60405180910390fd5b60046040518060a001604052803373ffffffffffffffffffffffffffffffffffffffff16815260200184815260200142815260200183426105b99190610ad3565b815260200160011515815250908060018154018082558091505060019003905f5260205f2090600502015f909190919091505f820151815f015f6101000a81548173ffffffffffffffffffffffffffffffffffffffff021916908373ffffffffffffffffffffffffffffffffffffffff1602179055506020820151816001015560408201518160020155606082015181600301556080820151816004015f6101000a81548160ff02191690831515021790555050508160035f82825461067f9190610b06565b925050819055507f3212cbfe361059c5b3920e237317f5db93b01494d56fc3b2549790b54282445860016004805490506106b99190610b06565b33844285426106c89190610ad3565b6040516106d9959493929190610b7a565b60405180910390a15050565b5f600480549050905090565b5f8054906101000a900473ffffffffffffffffffffffffffffffffffffffff1681565b60048181548110610723575f80fd5b905f5260205f2090600502015f91509050805f015f9054906101000a900473ffffffffffffffffffffffffffffffffffffffff1690806001015490806002015490806003015490806004015f9054906101000a900460ff16905085565b5f819050919050565b61079281610780565b82525050565b5f6020820190506107ab5f830184610789565b92915050565b5f80fd5b6107be81610780565b81146107c8575f80fd5b50565b5f813590506107d9816107b5565b92915050565b5f602082840312156107f4576107f36107b1565b5b5f610801848285016107cb565b91505092915050565b5f80604083850312156108205761081f6107b1565b5b5f61082d858286016107cb565b925050602061083e858286016107cb565b9150509250929050565b5f73ffffffffffffffffffffffffffffffffffffffff82169050919050565b5f61087182610848565b9050919050565b61088181610867565b82525050565b5f60208201905061089a5f830184610878565b92915050565b5f8115159050919050565b6108b4816108a0565b82525050565b5f60a0820190506108cd5f830188610878565b6108da6020830187610789565b6108e76040830186610789565b6108f46060830185610789565b61090160808301846108ab565b9695505050505050565b5f82825260208201905092915050565b7f4f6e6c7920746865206f776e65722063616e2063616c6c20746869732066756e5f8201527f6374696f6e000000000000000000000000000000000000000000000000000000602082015250565b5f61097560258361090b565b91506109808261091b565b604082019050919050565b5f6020820190508181035f8301526109a281610969565b9050919050565b7f496e76616c69642072656e74616c2049440000000000000000000000000000005f82015250565b5f6109dd60118361090b565b91506109e8826109a9565b602082019050919050565b5f6020820190508181035f830152610a0a816109d1565b9050919050565b7f4e487b71000000000000000000000000000000000000000000000000000000005f52603260045260245ffd5b7f52656e74616c206973206e6f74206163746976650000000000000000000000005f82015250565b5f610a7260148361090b565b9150610a7d82610a3e565b602082019050919050565b5f6020820190508181035f830152610a9f81610a66565b9050919050565b7f4e487b71000000000000000000000000000000000000000000000000000000005f52601160045260245ffd5b5f610add82610780565b9150610ae883610780565b9250828201905080821115610b0057610aff610aa6565b5b92915050565b5f610b1082610780565b9150610b1b83610780565b9250828203905081811115610b3357610b32610aa6565b5b92915050565b5f610b4382610780565b9150610b4e83610780565b9250828202610b5c81610780565b91508282048414831517610b7357610b72610aa6565b5b5092915050565b5f60a082019050610b8d5f830188610789565b610b9a6020830187610878565b610ba76040830186610789565b610bb46060830185610789565b610bc16080830184610789565b9695505050505050565b7f496e73756666696369656e7420617661696c61626c65207370616365000000005f82015250565b5f610bff601c8361090b565b9150610c0a82610bcb565b602082019050919050565b5f6020820190508181035f830152610c2c81610bf3565b9050919050565b7f496e73756666696369656e742066756e64732073656e740000000000000000005f82015250565b5f610c6760178361090b565b9150610c7282610c33565b602082019050919050565b5f6020820190508181035f830152610c9481610c5b565b905091905056fea2646970667358221220372b62b836ab10d3484343bc1ad62f13a3fbea0a5fb4bd22b8849e7f61ccdca064736f6c63430008150033","opcodes":"PUSH1 0x80 PUSH1 0x40 MSTORE CALLVALUE DUP1 ISZERO PUSH3 0x10 JUMPI PUSH0 DUP1 REVERT JUMPDEST POP PUSH1 0x40 MLOAD PUSH3 0xE68 CODESIZE SUB DUP1 PUSH3 0xE68 DUP4 CODECOPY DUP2 DUP2 ADD PUSH1 0x40 MSTORE DUP2 ADD SWAP1 PUSH3 0x36 SWAP2 SWAP1 PUSH3 0x130 JUMP JUMPDEST DUP1 PUSH0 DUP1 PUSH2 0x100 EXP DUP2 SLOAD DUP2 PUSH20 0xFFFFFFFFFFFFFFFFFFFFFFFFFFFFFFFFFFFFFFFF MUL NOT AND SWAP1 DUP4 PUSH20 0xFFFFFFFFFFFFFFFFFFFFFFFFFFFFFFFFFFFFFFFF AND MUL OR SWAP1 SSTORE POP DUP3 PUSH1 0x2 DUP2 SWAP1 SSTORE POP DUP3 PUSH1 0x3 DUP2 SWAP1 SSTORE POP DUP2 PUSH1 0x1 DUP2 SWAP1 SSTORE POP POP POP POP PUSH3 0x189 JUMP JUMPDEST PUSH0 DUP1 REVERT JUMPDEST PUSH0 DUP2 SWAP1 POP SWAP2 SWAP1 POP JUMP JUMPDEST PUSH3 0xAB DUP2 PUSH3 0x97 JUMP JUMPDEST DUP2 EQ PUSH3 0xB6 JUMPI PUSH0 DUP1 REVERT JUMPDEST POP JUMP JUMPDEST PUSH0 DUP2 MLOAD SWAP1 POP PUSH3 0xC9 DUP2 PUSH3 0xA0 JUMP JUMPDEST SWAP3 SWAP2 POP POP JUMP JUMPDEST PUSH0 PUSH20 0xFFFFFFFFFFFFFFFFFFFFFFFFFFFFFFFFFFFFFFFF DUP3 AND SWAP1 POP SWAP2 SWAP1 POP JUMP JUMPDEST PUSH0 PUSH3 0xFA DUP3 PUSH3 0xCF JUMP JUMPDEST SWAP1 POP SWAP2 SWAP1 POP JUMP JUMPDEST PUSH3 0x10C DUP2 PUSH3 0xEE JUMP JUMPDEST DUP2 EQ PUSH3 0x117 JUMPI PUSH0 DUP1 REVERT JUMPDEST POP JUMP JUMPDEST PUSH0 DUP2 MLOAD SWAP1 POP PUSH3 0x12A DUP2 PUSH3 0x101 JUMP JUMPDEST SWAP3 SWAP2 POP POP JUMP JUMPDEST PUSH0 DUP1 PUSH0 PUSH1 0x60 DUP5 DUP7 SUB SLT ISZERO PUSH3 0x14A JUMPI PUSH3 0x149 PUSH3 0x93 JUMP JUMPDEST JUMPDEST PUSH0 PUSH3 0x159 DUP7 DUP3 DUP8 ADD PUSH3 0xB9 JUMP JUMPDEST SWAP4 POP POP PUSH1 0x20 PUSH3 0x16C DUP7 DUP3 DUP8 ADD PUSH3 0xB9 JUMP JUMPDEST SWAP3 POP POP PUSH1 0x40 PUSH3 0x17F DUP7 DUP3 DUP8 ADD PUSH3 0x11A JUMP JUMPDEST SWAP2 POP POP SWAP3 POP SWAP3 POP SWAP3 JUMP JUMPDEST PUSH2 0xCD1 DUP1 PUSH3 0x197 PUSH0 CODECOPY PUSH0 RETURN INVALID PUSH1 0x80 PUSH1 0x40 MSTORE PUSH1 0x4 CALLDATASIZE LT PUSH2 0x7A JUMPI PUSH0 CALLDATALOAD PUSH1 0xE0 SHR DUP1 PUSH4 0x7B6F86EE GT PUSH2 0x4D JUMPI DUP1 PUSH4 0x7B6F86EE EQ PUSH2 0x124 JUMPI DUP1 PUSH4 0x83D255BC EQ PUSH2 0x140 JUMPI DUP1 PUSH4 0x8DA5CB5B EQ PUSH2 0x16A JUMPI DUP1 PUSH4 0xAF94A1D1 EQ PUSH2 0x194 JUMPI PUSH2 0x7A JUMP JUMPDEST DUP1 PUSH4 0x136F66D EQ PUSH2 0x7E JUMPI DUP1 PUSH4 0x1C43CD04 EQ PUSH2 0xA8 JUMPI DUP1 PUSH4 0x41F5C650 EQ PUSH2 0xD2 JUMPI DUP1 PUSH4 0x69B42DC2 EQ PUSH2 0xFA JUMPI JUMPDEST PUSH0 DUP1 REVERT JUMPDEST CALLVALUE DUP1 ISZERO PUSH2 0x89 JUMPI PUSH0 DUP1 REVERT JUMPDEST POP PUSH2 0x92 PUSH2 0x1D4 JUMP JUMPDEST PUSH1 0x40 MLOAD PUSH2 0x9F SWAP2 SWAP1 PUSH2 0x798 JUMP JUMPDEST PUSH1 0x40 MLOAD DUP1 SWAP2 SUB SWAP1 RETURN JUMPDEST CALLVALUE DUP1 ISZERO PUSH2 0xB3 JUMPI PUSH0 DUP1 REVERT JUMPDEST POP PUSH2 0xBC PUSH2 0x1DA JUMP JUMPDEST PUSH1 0x40 MLOAD PUSH2 0xC9 SWAP2 SWAP1 PUSH2 0x798 JUMP JUMPDEST PUSH1 0x40 MLOAD DUP1 SWAP2 SUB SWAP1 RETURN JUMPDEST CALLVALUE DUP1 ISZERO PUSH2 0xDD JUMPI PUSH0 DUP1 REVERT JUMPDEST POP PUSH2 0xF8 PUSH1 0x4 DUP1 CALLDATASIZE SUB DUP2 ADD SWAP1 PUSH2 0xF3 SWAP2 SWAP1 PUSH2 0x7DF JUMP JUMPDEST PUSH2 0x1E0 JUMP JUMPDEST STOP JUMPDEST CALLVALUE DUP1 ISZERO PUSH2 0x105 JUMPI PUSH0 DUP1 REVERT JUMPDEST POP PUSH2 0x10E PUSH2 0x4D3 JUMP JUMPDEST PUSH1 0x40 MLOAD PUSH2 0x11B SWAP2 SWAP1 PUSH2 0x798 JUMP JUMPDEST PUSH1 0x40 MLOAD DUP1 SWAP2 SUB SWAP1 RETURN JUMPDEST PUSH2 0x13E PUSH1 0x4 DUP1 CALLDATASIZE SUB DUP2 ADD SWAP1 PUSH2 0x139 SWAP2 SWAP1 PUSH2 0x80A JUMP JUMPDEST PUSH2 0x4D9 JUMP JUMPDEST STOP JUMPDEST CALLVALUE DUP1 ISZERO PUSH2 0x14B JUMPI PUSH0 DUP1 REVERT JUMPDEST POP PUSH2 0x154 PUSH2 0x6E5 JUMP JUMPDEST PUSH1 0x40 MLOAD PUSH2 0x161 SWAP2 SWAP1 PUSH2 0x798 JUMP JUMPDEST PUSH1 0x40 MLOAD DUP1 SWAP2 SUB SWAP1 RETURN JUMPDEST CALLVALUE DUP1 ISZERO PUSH2 0x175 JUMPI PUSH0 DUP1 REVERT JUMPDEST POP PUSH2 0x17E PUSH2 0x6F1 JUMP JUMPDEST PUSH1 0x40 MLOAD PUSH2 0x18B SWAP2 SWAP1 PUSH2 0x887 JUMP JUMPDEST PUSH1 0x40 MLOAD DUP1 SWAP2 SUB SWAP1 RETURN JUMPDEST CALLVALUE DUP1 ISZERO PUSH2 0x19F JUMPI PUSH0 DUP1 REVERT JUMPDEST POP PUSH2 0x1BA PUSH1 0x4 DUP1 CALLDATASIZE SUB DUP2 ADD SWAP1 PUSH2 0x1B5 SWAP2 SWAP1 PUSH2 0x7DF JUMP JUMPDEST PUSH2 0x714 JUMP JUMPDEST PUSH1 0x40 MLOAD PUSH2 0x1CB SWAP6 SWAP5 SWAP4 SWAP3 SWAP2 SWAP1 PUSH2 0x8BA JUMP JUMPDEST PUSH1 0x40 MLOAD DUP1 SWAP2 SUB SWAP1 RETURN JUMPDEST PUSH1 0x2 SLOAD DUP2 JUMP JUMPDEST PUSH1 0x1 SLOAD DUP2 JUMP JUMPDEST PUSH0 DUP1 SLOAD SWAP1 PUSH2 0x100 EXP SWAP1 DIV PUSH20 0xFFFFFFFFFFFFFFFFFFFFFFFFFFFFFFFFFFFFFFFF AND PUSH20 0xFFFFFFFFFFFFFFFFFFFFFFFFFFFFFFFFFFFFFFFF AND CALLER PUSH20 0xFFFFFFFFFFFFFFFFFFFFFFFFFFFFFFFFFFFFFFFF AND EQ PUSH2 0x26D JUMPI PUSH1 0x40 MLOAD PUSH32 0x8C379A000000000000000000000000000000000000000000000000000000000 DUP2 MSTORE PUSH1 0x4 ADD PUSH2 0x264 SWAP1 PUSH2 0x98B JUMP JUMPDEST PUSH1 0x40 MLOAD DUP1 SWAP2 SUB SWAP1 REVERT JUMPDEST PUSH1 0x4 DUP1 SLOAD SWAP1 POP DUP2 LT PUSH2 0x2B4 JUMPI PUSH1 0x40 MLOAD PUSH32 0x8C379A000000000000000000000000000000000000000000000000000000000 DUP2 MSTORE PUSH1 0x4 ADD PUSH2 0x2AB SWAP1 PUSH2 0x9F3 JUMP JUMPDEST PUSH1 0x40 MLOAD DUP1 SWAP2 SUB SWAP1 REVERT JUMPDEST PUSH1 0x4 DUP2 DUP2 SLOAD DUP2 LT PUSH2 0x2C8 JUMPI PUSH2 0x2C7 PUSH2 0xA11 JUMP JUMPDEST JUMPDEST SWAP1 PUSH0 MSTORE PUSH1 0x20 PUSH0 KECCAK256 SWAP1 PUSH1 0x5 MUL ADD PUSH1 0x4 ADD PUSH0 SWAP1 SLOAD SWAP1 PUSH2 0x100 EXP SWAP1 DIV PUSH1 0xFF AND PUSH2 0x323 JUMPI PUSH1 0x40 MLOAD PUSH32 0x8C379A000000000000000000000000000000000000000000000000000000000 DUP2 MSTORE PUSH1 0x4 ADD PUSH2 0x31A SWAP1 PUSH2 0xA88 JUMP JUMPDEST PUSH1 0x40 MLOAD DUP1 SWAP2 SUB SWAP1 REVERT JUMPDEST PUSH0 TIMESTAMP SWAP1 POP PUSH0 PUSH1 0x4 DUP4 DUP2 SLOAD DUP2 LT PUSH2 0x33C JUMPI PUSH2 0x33B PUSH2 0xA11 JUMP JUMPDEST JUMPDEST SWAP1 PUSH0 MSTORE PUSH1 0x20 PUSH0 KECCAK256 SWAP1 PUSH1 0x5 MUL ADD PUSH1 0x1 ADD SLOAD SWAP1 POP PUSH0 PUSH1 0x4 DUP5 DUP2 SLOAD DUP2 LT PUSH2 0x363 JUMPI PUSH2 0x362 PUSH2 0xA11 JUMP JUMPDEST JUMPDEST SWAP1 PUSH0 MSTORE PUSH1 0x20 PUSH0 KECCAK256 SWAP1 PUSH1 0x5 MUL ADD PUSH1 0x2 ADD SLOAD SWAP1 POP PUSH0 PUSH1 0x4 DUP6 DUP2 SLOAD DUP2 LT PUSH2 0x38A JUMPI PUSH2 0x389 PUSH2 0xA11 JUMP JUMPDEST JUMPDEST SWAP1 PUSH0 MSTORE PUSH1 0x20 PUSH0 KECCAK256 SWAP1 PUSH1 0x5 MUL ADD PUSH1 0x4 ADD PUSH0 PUSH2 0x100 EXP DUP2 SLOAD DUP2 PUSH1 0xFF MUL NOT AND SWAP1 DUP4 ISZERO ISZERO MUL OR SWAP1 SSTORE POP DUP2 PUSH1 0x3 PUSH0 DUP3 DUP3 SLOAD PUSH2 0x3C0 SWAP2 SWAP1 PUSH2 0xAD3 JUMP JUMPDEST SWAP3 POP POP DUP2 SWAP1 SSTORE POP PUSH0 DUP1 SLOAD SWAP1 PUSH2 0x100 EXP SWAP1 DIV PUSH20 0xFFFFFFFFFFFFFFFFFFFFFFFFFFFFFFFFFFFFFFFF AND PUSH20 0xFFFFFFFFFFFFFFFFFFFFFFFFFFFFFFFFFFFFFFFF AND PUSH2 0x8FC DUP3 DUP6 PUSH2 0x40C SWAP2 SWAP1 PUSH2 0xB06 JUMP JUMPDEST DUP5 PUSH1 0x1 SLOAD PUSH2 0x41A SWAP2 SWAP1 PUSH2 0xB39 JUMP JUMPDEST PUSH2 0x424 SWAP2 SWAP1 PUSH2 0xB39 JUMP JUMPDEST SWAP1 DUP2 ISZERO MUL SWAP1 PUSH1 0x40 MLOAD PUSH0 PUSH1 0x40 MLOAD DUP1 DUP4 SUB DUP2 DUP6 DUP9 DUP9 CALL SWAP4 POP POP POP POP ISZERO DUP1 ISZERO PUSH2 0x44C JUMPI RETURNDATASIZE PUSH0 DUP1 RETURNDATACOPY RETURNDATASIZE PUSH0 REVERT JUMPDEST POP PUSH32 0x8CD124B269B4BA726D0D8D7CBDB34ED368A0B04B0EF1904020D478955ED613E2 DUP5 PUSH1 0x4 DUP7 DUP2 SLOAD DUP2 LT PUSH2 0x483 JUMPI PUSH2 0x482 PUSH2 0xA11 JUMP JUMPDEST JUMPDEST SWAP1 PUSH0 MSTORE PUSH1 0x20 PUSH0 KECCAK256 SWAP1 PUSH1 0x5 MUL ADD PUSH0 ADD PUSH0 SWAP1 SLOAD SWAP1 PUSH2 0x100 EXP SWAP1 DIV PUSH20 0xFFFFFFFFFFFFFFFFFFFFFFFFFFFFFFFFFFFFFFFF AND DUP5 DUP5 DUP8 PUSH1 0x40 MLOAD PUSH2 0x4C5 SWAP6 SWAP5 SWAP4 SWAP3 SWAP2 SWAP1 PUSH2 0xB7A JUMP JUMPDEST PUSH1 0x40 MLOAD DUP1 SWAP2 SUB SWAP1 LOG1 POP POP POP POP JUMP JUMPDEST PUSH1 0x3 SLOAD DUP2 JUMP JUMPDEST DUP2 PUSH1 0x3 SLOAD LT ISZERO PUSH2 0x51E JUMPI PUSH1 0x40 MLOAD PUSH32 0x8C379A000000000000000000000000000000000000000000000000000000000 DUP2 MSTORE PUSH1 0x4 ADD PUSH2 0x515 SWAP1 PUSH2 0xC15 JUMP JUMPDEST PUSH1 0x40 MLOAD DUP1 SWAP2 SUB SWAP1 REVERT JUMPDEST DUP1 DUP3 PUSH1 0x1 SLOAD PUSH2 0x52D SWAP2 SWAP1 PUSH2 0xB39 JUMP JUMPDEST PUSH2 0x537 SWAP2 SWAP1 PUSH2 0xB39 JUMP JUMPDEST CALLVALUE EQ PUSH2 0x578 JUMPI PUSH1 0x40 MLOAD PUSH32 0x8C379A000000000000000000000000000000000000000000000000000000000 DUP2 MSTORE PUSH1 0x4 ADD PUSH2 0x56F SWAP1 PUSH2 0xC7D JUMP JUMPDEST PUSH1 0x40 MLOAD DUP1 SWAP2 SUB SWAP1 REVERT JUMPDEST PUSH1 0x4 PUSH1 0x40 MLOAD DUP1 PUSH1 0xA0 ADD PUSH1 0x40 MSTORE DUP1 CALLER PUSH20 0xFFFFFFFFFFFFFFFFFFFFFFFFFFFFFFFFFFFFFFFF AND DUP2 MSTORE PUSH1 0x20 ADD DUP5 DUP2 MSTORE PUSH1 0x20 ADD TIMESTAMP DUP2 MSTORE PUSH1 0x20 ADD DUP4 TIMESTAMP PUSH2 0x5B9 SWAP2 SWAP1 PUSH2 0xAD3 JUMP JUMPDEST DUP2 MSTORE PUSH1 0x20 ADD PUSH1 0x1 ISZERO ISZERO DUP2 MSTORE POP SWAP1 DUP1 PUSH1 0x1 DUP2 SLOAD ADD DUP1 DUP3 SSTORE DUP1 SWAP2 POP POP PUSH1 0x1 SWAP1 SUB SWAP1 PUSH0 MSTORE PUSH1 0x20 PUSH0 KECCAK256 SWAP1 PUSH1 0x5 MUL ADD PUSH0 SWAP1 SWAP2 SWAP1 SWAP2 SWAP1 SWAP2 POP PUSH0 DUP3 ADD MLOAD DUP2 PUSH0 ADD PUSH0 PUSH2 0x100 EXP DUP2 SLOAD DUP2 PUSH20 0xFFFFFFFFFFFFFFFFFFFFFFFFFFFFFFFFFFFFFFFF MUL NOT AND SWAP1 DUP4 PUSH20 0xFFFFFFFFFFFFFFFFFFFFFFFFFFFFFFFFFFFFFFFF AND MUL OR SWAP1 SSTORE POP PUSH1 0x20 DUP3 ADD MLOAD DUP2 PUSH1 0x1 ADD SSTORE PUSH1 0x40 DUP3 ADD MLOAD DUP2 PUSH1 0x2 ADD SSTORE PUSH1 0x60 DUP3 ADD MLOAD DUP2 PUSH1 0x3 ADD SSTORE PUSH1 0x80 DUP3 ADD MLOAD DUP2 PUSH1 0x4 ADD PUSH0 PUSH2 0x100 EXP DUP2 SLOAD DUP2 PUSH1 0xFF MUL NOT AND SWAP1 DUP4 ISZERO ISZERO MUL OR SWAP1 SSTORE POP POP POP DUP2 PUSH1 0x3 PUSH0 DUP3 DUP3 SLOAD PUSH2 0x67F SWAP2 SWAP1 PUSH2 0xB06 JUMP JUMPDEST SWAP3 POP POP DUP2 SWAP1 SSTORE POP PUSH32 0x3212CBFE361059C5B3920E237317F5DB93B01494D56FC3B2549790B542824458 PUSH1 0x1 PUSH1 0x4 DUP1 SLOAD SWAP1 POP PUSH2 0x6B9 SWAP2 SWAP1 PUSH2 0xB06 JUMP JUMPDEST CALLER DUP5 TIMESTAMP DUP6 TIMESTAMP PUSH2 0x6C8 SWAP2 SWAP1 PUSH2 0xAD3 JUMP JUMPDEST PUSH1 0x40 MLOAD PUSH2 0x6D9 SWAP6 SWAP5 SWAP4 SWAP3 SWAP2 SWAP1 PUSH2 0xB7A JUMP JUMPDEST PUSH1 0x40 MLOAD DUP1 SWAP2 SUB SWAP1 LOG1 POP POP JUMP JUMPDEST PUSH0 PUSH1 0x4 DUP1 SLOAD SWAP1 POP SWAP1 POP SWAP1 JUMP JUMPDEST PUSH0 DUP1 SLOAD SWAP1 PUSH2 0x100 EXP SWAP1 DIV PUSH20 0xFFFFFFFFFFFFFFFFFFFFFFFFFFFFFFFFFFFFFFFF AND DUP2 JUMP JUMPDEST PUSH1 0x4 DUP2 DUP2 SLOAD DUP2 LT PUSH2 0x723 JUMPI PUSH0 DUP1 REVERT JUMPDEST SWAP1 PUSH0 MSTORE PUSH1 0x20 PUSH0 KECCAK256 SWAP1 PUSH1 0x5 MUL ADD PUSH0 SWAP2 POP SWAP1 POP DUP1 PUSH0 ADD PUSH0 SWAP1 SLOAD SWAP1 PUSH2 0x100 EXP SWAP1 DIV PUSH20 0xFFFFFFFFFFFFFFFFFFFFFFFFFFFFFFFFFFFFFFFF AND SWAP1 DUP1 PUSH1 0x1 ADD SLOAD SWAP1 DUP1 PUSH1 0x2 ADD SLOAD SWAP1 DUP1 PUSH1 0x3 ADD SLOAD SWAP1 DUP1 PUSH1 0x4 ADD PUSH0 SWAP1 SLOAD SWAP1 PUSH2 0x100 EXP SWAP1 DIV PUSH1 0xFF AND SWAP1 POP DUP6 JUMP JUMPDEST PUSH0 DUP2 SWAP1 POP SWAP2 SWAP1 POP JUMP JUMPDEST PUSH2 0x792 DUP2 PUSH2 0x780 JUMP JUMPDEST DUP3 MSTORE POP POP JUMP JUMPDEST PUSH0 PUSH1 0x20 DUP3 ADD SWAP1 POP PUSH2 0x7AB PUSH0 DUP4 ADD DUP5 PUSH2 0x789 JUMP JUMPDEST SWAP3 SWAP2 POP POP JUMP JUMPDEST PUSH0 DUP1 REVERT JUMPDEST PUSH2 0x7BE DUP2 PUSH2 0x780 JUMP JUMPDEST DUP2 EQ PUSH2 0x7C8 JUMPI PUSH0 DUP1 REVERT JUMPDEST POP JUMP JUMPDEST PUSH0 DUP2 CALLDATALOAD SWAP1 POP PUSH2 0x7D9 DUP2 PUSH2 0x7B5 JUMP JUMPDEST SWAP3 SWAP2 POP POP JUMP JUMPDEST PUSH0 PUSH1 0x20 DUP3 DUP5 SUB SLT ISZERO PUSH2 0x7F4 JUMPI PUSH2 0x7F3 PUSH2 0x7B1 JUMP JUMPDEST JUMPDEST PUSH0 PUSH2 0x801 DUP5 DUP3 DUP6 ADD PUSH2 0x7CB JUMP JUMPDEST SWAP2 POP POP SWAP3 SWAP2 POP POP JUMP JUMPDEST PUSH0 DUP1 PUSH1 0x40 DUP4 DUP6 SUB SLT ISZERO PUSH2 0x820 JUMPI PUSH2 0x81F PUSH2 0x7B1 JUMP JUMPDEST JUMPDEST PUSH0 PUSH2 0x82D DUP6 DUP3 DUP7 ADD PUSH2 0x7CB JUMP JUMPDEST SWAP3 POP POP PUSH1 0x20 PUSH2 0x83E DUP6 DUP3 DUP7 ADD PUSH2 0x7CB JUMP JUMPDEST SWAP2 POP POP SWAP3 POP SWAP3 SWAP1 POP JUMP JUMPDEST PUSH0 PUSH20 0xFFFFFFFFFFFFFFFFFFFFFFFFFFFFFFFFFFFFFFFF DUP3 AND SWAP1 POP SWAP2 SWAP1 POP JUMP JUMPDEST PUSH0 PUSH2 0x871 DUP3 PUSH2 0x848 JUMP JUMPDEST SWAP1 POP SWAP2 SWAP1 POP JUMP JUMPDEST PUSH2 0x881 DUP2 PUSH2 0x867 JUMP JUMPDEST DUP3 MSTORE POP POP JUMP JUMPDEST PUSH0 PUSH1 0x20 DUP3 ADD SWAP1 POP PUSH2 0x89A PUSH0 DUP4 ADD DUP5 PUSH2 0x878 JUMP JUMPDEST SWAP3 SWAP2 POP POP JUMP JUMPDEST PUSH0 DUP2 ISZERO ISZERO SWAP1 POP SWAP2 SWAP1 POP JUMP JUMPDEST PUSH2 0x8B4 DUP2 PUSH2 0x8A0 JUMP JUMPDEST DUP3 MSTORE POP POP JUMP JUMPDEST PUSH0 PUSH1 0xA0 DUP3 ADD SWAP1 POP PUSH2 0x8CD PUSH0 DUP4 ADD DUP9 PUSH2 0x878 JUMP JUMPDEST PUSH2 0x8DA PUSH1 0x20 DUP4 ADD DUP8 PUSH2 0x789 JUMP JUMPDEST PUSH2 0x8E7 PUSH1 0x40 DUP4 ADD DUP7 PUSH2 0x789 JUMP JUMPDEST PUSH2 0x8F4 PUSH1 0x60 DUP4 ADD DUP6 PUSH2 0x789 JUMP JUMPDEST PUSH2 0x901 PUSH1 0x80 DUP4 ADD DUP5 PUSH2 0x8AB JUMP JUMPDEST SWAP7 SWAP6 POP POP POP POP POP POP JUMP JUMPDEST PUSH0 DUP3 DUP3 MSTORE PUSH1 0x20 DUP3 ADD SWAP1 POP SWAP3 SWAP2 POP POP JUMP JUMPDEST PUSH32 0x4F6E6C7920746865206F776E65722063616E2063616C6C20746869732066756E PUSH0 DUP3 ADD MSTORE PUSH32 0x6374696F6E000000000000000000000000000000000000000000000000000000 PUSH1 0x20 DUP3 ADD MSTORE POP JUMP JUMPDEST PUSH0 PUSH2 0x975 PUSH1 0x25 DUP4 PUSH2 0x90B JUMP JUMPDEST SWAP2 POP PUSH2 0x980 DUP3 PUSH2 0x91B JUMP JUMPDEST PUSH1 0x40 DUP3 ADD SWAP1 POP SWAP2 SWAP1 POP JUMP JUMPDEST PUSH0 PUSH1 0x20 DUP3 ADD SWAP1 POP DUP2 DUP2 SUB PUSH0 DUP4 ADD MSTORE PUSH2 0x9A2 DUP2 PUSH2 0x969 JUMP JUMPDEST SWAP1 POP SWAP2 SWAP1 POP JUMP JUMPDEST PUSH32 0x496E76616C69642072656E74616C204944000000000000000000000000000000 PUSH0 DUP3 ADD MSTORE POP JUMP JUMPDEST PUSH0 PUSH2 0x9DD PUSH1 0x11 DUP4 PUSH2 0x90B JUMP JUMPDEST SWAP2 POP PUSH2 0x9E8 DUP3 PUSH2 0x9A9 JUMP JUMPDEST PUSH1 0x20 DUP3 ADD SWAP1 POP SWAP2 SWAP1 POP JUMP JUMPDEST PUSH0 PUSH1 0x20 DUP3 ADD SWAP1 POP DUP2 DUP2 SUB PUSH0 DUP4 ADD MSTORE PUSH2 0xA0A DUP2 PUSH2 0x9D1 JUMP JUMPDEST SWAP1 POP SWAP2 SWAP1 POP JUMP JUMPDEST PUSH32 0x4E487B7100000000000000000000000000000000000000000000000000000000 PUSH0 MSTORE PUSH1 0x32 PUSH1 0x4 MSTORE PUSH1 0x24 PUSH0 REVERT JUMPDEST PUSH32 0x52656E74616C206973206E6F7420616374697665000000000000000000000000 PUSH0 DUP3 ADD MSTORE POP JUMP JUMPDEST PUSH0 PUSH2 0xA72 PUSH1 0x14 DUP4 PUSH2 0x90B JUMP JUMPDEST SWAP2 POP PUSH2 0xA7D DUP3 PUSH2 0xA3E JUMP JUMPDEST PUSH1 0x20 DUP3 ADD SWAP1 POP SWAP2 SWAP1 POP JUMP JUMPDEST PUSH0 PUSH1 0x20 DUP3 ADD SWAP1 POP DUP2 DUP2 SUB PUSH0 DUP4 ADD MSTORE PUSH2 0xA9F DUP2 PUSH2 0xA66 JUMP JUMPDEST SWAP1 POP SWAP2 SWAP1 POP JUMP JUMPDEST PUSH32 0x4E487B7100000000000000000000000000000000000000000000000000000000 PUSH0 MSTORE PUSH1 0x11 PUSH1 0x4 MSTORE PUSH1 0x24 PUSH0 REVERT JUMPDEST PUSH0 PUSH2 0xADD DUP3 PUSH2 0x780 JUMP JUMPDEST SWAP2 POP PUSH2 0xAE8 DUP4 PUSH2 0x780 JUMP JUMPDEST SWAP3 POP DUP3 DUP3 ADD SWAP1 POP DUP1 DUP3 GT ISZERO PUSH2 0xB00 JUMPI PUSH2 0xAFF PUSH2 0xAA6 JUMP JUMPDEST JUMPDEST SWAP3 SWAP2 POP POP JUMP JUMPDEST PUSH0 PUSH2 0xB10 DUP3 PUSH2 0x780 JUMP JUMPDEST SWAP2 POP PUSH2 0xB1B DUP4 PUSH2 0x780 JUMP JUMPDEST SWAP3 POP DUP3 DUP3 SUB SWAP1 POP DUP2 DUP2 GT ISZERO PUSH2 0xB33 JUMPI PUSH2 0xB32 PUSH2 0xAA6 JUMP JUMPDEST JUMPDEST SWAP3 SWAP2 POP POP JUMP JUMPDEST PUSH0 PUSH2 0xB43 DUP3 PUSH2 0x780 JUMP JUMPDEST SWAP2 POP PUSH2 0xB4E DUP4 PUSH2 0x780 JUMP JUMPDEST SWAP3 POP DUP3 DUP3 MUL PUSH2 0xB5C DUP2 PUSH2 0x780 JUMP JUMPDEST SWAP2 POP DUP3 DUP3 DIV DUP5 EQ DUP4 ISZERO OR PUSH2 0xB73 JUMPI PUSH2 0xB72 PUSH2 0xAA6 JUMP JUMPDEST JUMPDEST POP SWAP3 SWAP2 POP POP JUMP JUMPDEST PUSH0 PUSH1 0xA0 DUP3 ADD SWAP1 POP PUSH2 0xB8D PUSH0 DUP4 ADD DUP9 PUSH2 0x789 JUMP JUMPDEST PUSH2 0xB9A PUSH1 0x20 DUP4 ADD DUP8 PUSH2 0x878 JUMP JUMPDEST PUSH2 0xBA7 PUSH1 0x40 DUP4 ADD DUP7 PUSH2 0x789 JUMP JUMPDEST PUSH2 0xBB4 PUSH1 0x60 DUP4 ADD DUP6 PUSH2 0x789 JUMP JUMPDEST PUSH2 0xBC1 PUSH1 0x80 DUP4 ADD DUP5 PUSH2 0x789 JUMP JUMPDEST SWAP7 SWAP6 POP POP POP POP POP POP JUMP JUMPDEST PUSH32 0x496E73756666696369656E7420617661696C61626C6520737061636500000000 PUSH0 DUP3 ADD MSTORE POP JUMP JUMPDEST PUSH0 PUSH2 0xBFF PUSH1 0x1C DUP4 PUSH2 0x90B JUMP JUMPDEST SWAP2 POP PUSH2 0xC0A DUP3 PUSH2 0xBCB JUMP JUMPDEST PUSH1 0x20 DUP3 ADD SWAP1 POP SWAP2 SWAP1 POP JUMP JUMPDEST PUSH0 PUSH1 0x20 DUP3 ADD SWAP1 POP DUP2 DUP2 SUB PUSH0 DUP4 ADD MSTORE PUSH2 0xC2C DUP2 PUSH2 0xBF3 JUMP JUMPDEST SWAP1 POP SWAP2 SWAP1 POP JUMP JUMPDEST PUSH32 0x496E73756666696369656E742066756E64732073656E74000000000000000000 PUSH0 DUP3 ADD MSTORE POP JUMP JUMPDEST PUSH0 PUSH2 0xC67 PUSH1 0x17 DUP4 PUSH2 0x90B JUMP JUMPDEST SWAP2 POP PUSH2 0xC72 DUP3 PUSH2 0xC33 JUMP JUMPDEST PUSH1 0x20 DUP3 ADD SWAP1 POP SWAP2 SWAP1 POP JUMP JUMPDEST PUSH0 PUSH1 0x20 DUP3 ADD SWAP1 POP DUP2 DUP2 SUB PUSH0 DUP4 ADD MSTORE PUSH2 0xC94 DUP2 PUSH2 0xC5B JUMP JUMPDEST SWAP1 POP SWAP2 SWAP1 POP JUMP INVALID LOG2 PUSH5 0x6970667358 0x22 SLT KECCAK256 CALLDATACOPY 0x2B PUSH3 0xB836AB LT 0xD3 BASEFEE NUMBER NUMBER 0xBC BYTE 0xD6 0x2F SGT LOG3 0xFB 0xEA EXP PUSH0 0xB4 0xBD 0x22 0xB8 DUP5 SWAP15 PUSH32 0x61CCDCA064736F6C634300081500330000000000000000000000000000000000 "},"gasEstimates":{"creation":{"codeDepositCost":"656200","executionCost":"infinite","totalCost":"infinite"},"external":{"availableDiskSpace()":"2492","closeRental(uint256)":"infinite","getRentalCount()":"2462","owner()":"2549","rentSpace(uint256,uint256)":"infinite","rentalPrice()":"2448","rentals(uint256)":"infinite","totalDiskSpace()":"2426"}},"methodIdentifiers":{"availableDiskSpace()":"69b42dc2","closeRental(uint256)":"41f5c650","getRentalCount()":"83d255bc","owner()":"8da5cb5b","rentSpace(uint256,uint256)":"7b6f86ee","rentalPrice()":"1c43cd04","rentals(uint256)":"af94a1d1","totalDiskSpace()":"0136f66d"}},"storageLayout":{"storage":[{"astId":44,"contract":"DiskSpaceRentalSystem.sol:DiskSpaceRentalSystem","label":"owner","offset":0,"slot":"0","type":"t_address"},{"astId":46,"contract":"DiskSpaceRentalSystem.sol:DiskSpaceRentalSystem","label":"rentalPrice","offset":0,"slot":"1","type":"t_uint256"},{"astId":48,"contract":"DiskSpaceRentalSystem.sol:DiskSpaceRentalSystem","label":"totalDiskSpace","offset":0,"slot":"2","type":"t_uint256"},{"astId":50,"contract":"DiskSpaceRentalSystem.sol:DiskSpaceRentalSystem","label":"availableDiskSpace","offset":0,"slot":"3","type":"t_uint256"},{"astId":65,"contract":"DiskSpaceRentalSystem.sol:DiskSpaceRentalSystem","label":"rentals","offset":0,"slot":"4","type":"t_array(t_struct(Rental)61_storage)dyn_storage"}],"types":{"t_address":{"encoding":"inplace","label":"address","numberOfBytes":"20"},"t_array(t_struct(Rental)61_storage)dyn_storage":{"base":"t_struct(Rental)61_storage","encoding":"dynamic_array","label":"struct DiskSpaceRentalSystem.Rental[]","numberOfBytes":"32"},"t_bool":{"encoding":"inplace","label":"bool","numberOfBytes":"1"},"t_struct(Rental)61_storage":{"encoding":"inplace","label":"struct DiskSpaceRentalSystem.Rental","members":[{"astId":52,"contract":"DiskSpaceRentalSystem.sol:DiskSpaceRentalSystem","label":"renter","offset":0,"slot":"0","type":"t_address"},{"astId":54,"contract":"DiskSpaceRentalSystem.sol:DiskSpaceRentalSystem","label":"space","offset":0,"slot":"1","type":"t_uint256"},{"astId":56,"contract":"DiskSpaceRentalSystem.sol:DiskSpaceRentalSystem","label":"start","offset":0,"slot":"2","type":"t_uint256"},{"astId":58,"contract":"DiskSpaceRentalSystem.sol:DiskSpaceRentalSystem","label":"end","offset":0,"slot":"3","type":"t_uint256"},{"astId":60,"contract":"DiskSpaceRentalSystem.sol:DiskSpaceRentalSystem","label":"active","offset":0,"slot":"4","type":"t_bool"}],"numberOfBytes":"160"},"t_uint256":{"encoding":"inplace","label":"uint256","numberOfBytes":"32"}}},"userdoc":{"kind":"user","methods":{},"version":1}}